:100000000C94AE010C94DF010C94DF010C94DF0121
:100010000C94DF010C94DF010C94DF010C94DF01E0
:100020000C94DF010C94B24F0C94B24F0C94B24F6D
:100030000C94DF010C94DF010C94DF010C94DF01C0
:100040000C94DF010C94DF010C94DF010C94DF01B0
:100050000C94DF010C94DF010C94DF010C94684FC9
:100060000C94DF010C943E4F0C94144F0C94DF0160
:100070000C94DF010C94DF010C94DF010C94DF0180
:100080000C94DF010C94DF010C94DF010C94DF0170
:100090000C94EA4E0C94C04E0C94DF010C94BC4FAF
:1000A0000C94DF010C94DF010C94DF010C94DF0150
:1000B0000C94DF010C94DF010C94DF010C94DF0140
:1000C0000C94DF010C94DF010C94DF010C94964E2C
:1000D0000C946C4E0C94DF010C94424E0C94184E10
:1000E0000C94DF010C9483150C9435090C941004C6
:1000F0000C9443040C94D9150C94B7090C94800803
:100100000C9451330C942F040C9406160C94081282
:100110000C941D040C94CC2F0C942B040C94C23121
:100120000C94E6620C9462020C94CC320C94FC02A7
:100130000C948F310C94BC150C9421040C9466081B
:100140000C9427040C94EE020C94AC150C9442040D
:100150000C9476020C94DA020C94A2300C944704AE
:100160000C94EC320C9463020C949F030C940C04DA
:100170000C9444320C9446450C94D65C0C94520377
:100180000C9469300C94C1220C94A8370C9442450D
:100190000C94CD050C94D4050C94EC050C9414042B
:1001A0000C9454090C9444450C943E450C944030F6
:1001B0000C94AD080C9440450C946C440C94390498
:1001C0000C9402230C9417040C9410160C94020443
:1001D0000C946D090C94D0050C946F370C94E13796
:1001E0000C948C150C94D8050C94CB020C947908C3
:1001F0000C9435040C9422150C94FF2E0C9485025B
:100200000C9401300C94A72F0C9457080C940804FC
:100210000C943C450C9456080C943D046364696E40
:100220006F70737578585B007C3C3E5E2B3D3F2FB2
:100230005B5D3B2C2A225C00000022002500280088
:100240002B002E00310034000201000005010801DE
:100250000B01000020002300260029002C002F00A5
:1002600032000001000003010601090100000A0B31
:1002700002090C0D0E080703040100000000000035
:10028000000000000000000000000000000000006E
:10029000000000000000000012111000000000002B
:1002A000000000000000000000000000000000004E
:1002B000000000002100240027002A002D0030004B
:1002C000330001010000040107010A0101021020AE
:1002D000200808102040102040800201020108047C
:1002E0000201010204081020408080402010080410
:1002F0000201800402018040201008040201080469
:1003000002010102040810204080010204081020AC
:1003100040800505050507050808080802020202D5
:100320000A0A080804040404010101010101010191
:100330000303030303030303040707070C0C0C0C5C
:100340000C0C0C0C02020202060606060606060645
:100350000B0B0B0B0B0B0B0BD65CE66211241FBEB9
:10036000CFEFD1E2DEBFCDBF00E00CBF21E1A0E0C6
:10037000BAE001C01D92A73AB207E1F71AE0A0E087
:10038000B2E0E0ECF9ED00E00BBF02C007900D9287
:10039000A030B107D9F711E0CDEAD1E000E006C006
:1003A00021970109802FFE010E943864CC3AD107C1
:1003B00080E00807A9F70E942F5F0C94CE6C0C9484
:1003C0000000FC01A089B18982E08C93A485B585E9
:1003D0001C92A685B7858FEC8C93108EA489B58965
:1003E00086E08C93A289B3898C9180618C93A289D9
:1003F000B3898C9188608C93A289B3898C91806831
:100400008C930288F389E02D80818F7D808308950D
:10041000CF93DF93FC018281938190936F1180933E
:100420006E1184819581A681B7818093701190931C
:100430007111A0937211B093731180859185A2857B
:10044000B3858093741190937511A0937611B09336
:100450007711DF011C96CF014996C8E7D1E12D91B4
:100460002993A817B907D9F7818D928D909386119A
:10047000809385118CE691E1DF91CF91089596E00C
:10048000899FD0011124AF56BF4E90967C936E93F6
:100490005F9791E091969C939197E091FE10F09177
:1004A000FF109091FD10992339F0309751F0811190
:1004B00008C08091AD101994309719F05C968C911A
:1004C000FACF089508950895FC01248135816217BB
:1004D000730720F480819181009729F41092130B07
:1004E00083E19BE00895860F971F08950895DB012F
:1004F00014964D915C9115976D917C91DC01ED9175
:10050000FC910280F381E02D1994AF92BF92CF92BB
:10051000DF92EF92FF920F931F93CF93DF936C01C3
:100520007B018B01040F151FEB015E01AE18BF08A4
:10053000C017D10759F06991D601ED91FC91019056
:10054000F081E02DC6011995892B79F7C501DF915E
:10055000CF911F910F91FF90EF90DF90CF90BF90C0
:10056000AF900895FC01A089B1898C91A689B789C3
:1005700082FD0FC09C91818D8F5F8F73228D8217BA
:1005800049F0A18DAE0FBF2FB11D5D969C93818F59
:1005900008958C910895FC01538D448D252F30E0F2
:1005A000842F90E0821B930B541710F0CF96089580
:1005B00001970895FC01918D828D981761F0A28DAD
:1005C000AE0FBF2FB11D5D968C91928D9F5F9F7373
:1005D000928F90E008958FEF9FEF0895FC01918D29
:1005E000828D981731F0828DE80FF11D858D90E096
:1005F00008958FEF9FEF0895FC01918D228D892F33
:1006000090E0805C9F4F821B91098F73992708951A
:100610008DEA9DE00E94FC0221E0892B09F420E094
:10062000822F08958AE49EE00E94FC0221E0892B3B
:1006300009F420E0822F089587EE9EE00E94FC02DC
:1006400021E0892B09F420E0822F089584E89FE0BF
:100650000E94FC0221E0892B09F420E0822F0895FA
:10066000FC01A48DA80FB92FB11DA35ABF4F2C9127
:10067000848D90E001968F739927848FA689B7891E
:100680002C93A089B1898C91837080648C93938D15
:10069000848D981306C00288F389E02D80818F7DB8
:1006A00080830895EF92FF920F931F93CF93DF9370
:1006B000EC0181E0888F9B8D8C8D98131AC0E8899E
:1006C000F989808185FF15C09FB7F894EE89FF896D
:1006D0006083E889F98980818370806480839FBF0B
:1006E00081E090E0DF91CF911F910F91FF90EF900B
:1006F0000895F62E0B8D10E00F5F1F4F0F7311271B
:10070000E02E8C8D8E110CC00FB607FCFACFE88955
:10071000F989808185FFF5CFCE010E943003F1CFAA
:10072000EB8DEC0FFD2FF11DE35AFF4FF0829FB7C9
:10073000F8940B8FEA89FB8980818062CFCFCF93B9
:10074000DF93EC01888D8823B9F0AA89BB89E889F9
:10075000F9898C9185FD03C0808186FD0DC00FB69F
:1007600007FCF7CF8C9185FFF2CF808185FFEDCF1D
:10077000CE010E943003E9CFDF91CF91089580E050
:1007800090E0892B29F00E94260381110E9400002D
:1007900080E090E0892B29F00E941C0381110E94C7
:1007A000000080E090E0892B29F00E941203811163
:1007B0000E94000080E090E0892B29F00E9408034D
:1007C00081110C94000008958150823108F05AC0C4
:1007D000E82FF0E08827E051FC4F8F4F0C943864ED
:1007E00010041404020408040C04420417041D0439
:1007F000210427042B042F043504390442043D044A
:1008000043044704809180008F778093800008958F
:10081000809180008F7DF9CF80918000877FF5CF18
:1008200084B58F7784BD089584B58F7DFBCF80918B
:10083000B0008F778093B00008958091B0008F7DD5
:10084000F9CF809190008F778093900008958091E8
:1008500090008F7DF9CF80919000877FF5CF8091B8
:10086000A0008F778093A00008958091A0008F7DD5
:10087000F9CF8091A000877FF5CF809120018F77FD
:10088000809320010895809120018F7DF9CF809180
:100890002001877FF5CFCF93DF93282F30E0F90138
:1008A000E459FD4F8491F901E453FD4FD491F901CE
:1008B000EE5EFC4FC491CC23A1F081110E94E403B1
:1008C000EC2FF0E0EE0FFF1FEE5AFD4FA591B49113
:1008D000EC91ED2381E090E009F480E0DF91CF918D
:1008E000089580E090E0FACF1F93CF93DF93282FF5
:1008F00030E0F901E459FD4F8491F901E453FD4FD3
:10090000D491F901EE5EFC4FC491CC23A9F0162FCF
:1009100081110E94E403EC2FF0E0EE0FFF1FE85C72
:10092000FD4FA591B4918FB7F894EC91111108C0C7
:10093000D095DE23DC938FBFDF91CF911F91089577
:10094000DE2BF8CFCF93DF9390E0FC01E453FD4F13
:1009500024918E5E9C4FFC0184918823C9F090E025
:10096000880F991FFC01EE54FD4FA591B491FC0135
:10097000E85CFD4FC591D49161110DC09FB7F8940B
:100980008C91209582238C938881282328839FBF74
:10099000DF91CF910895623051F49FB7F8943C9164
:1009A000822F809583238C93E8812E2BEFCF8FB7F6
:1009B000F894EC912E2B2C938FBFEACF60E08091BE
:1009C0009A110E94A20461E0809199110E9474041E
:1009D00080919A110E944B040197D1F360E08091BD
:1009E00099110C947404CF93DF93C9E9D1E161E0CC
:1009F00089810E94A20460E089810E94740461E000
:100A000088810E94740461E089810E94740460E01E
:100A10008981DF91CF910C94A2043FB7F894809123
:100A20000F0B9091100BA091110BB091120B26B5EA
:100A3000A89B05C02F3F19F00196A11DB11D3FBF16
:100A4000BA2FA92F982F8827BC01CD01620F711DE5
:100A5000811D911D42E0660F771F881F991F4A95DF
:100A6000D1F708958F929F92AF92BF92CF92DF926B
:100A7000EF92FF926B017C010E940D054B015C011E
:100A8000C114D104E104F104B9F00E940D05681904
:100A900079098A099B09683E73408105910580F3B5
:100AA00021E0C21AD108E108F10888EE880E83E03F
:100AB000981EA11CB11CE4CFFF90EF90DF90CF9067
:100AC000BF90AF909F908F9008952FB7F89460914A
:100AD0000B0B70910C0B80910D0B90910E0B2FBF97
:100AE00008950F931F93CF93DF93C82FD62F86E0DF
:100AF000C89FF0011124EF56FF4E11A2878D90A1DF
:100B000081309105F1F058F082309105F1F10397B1
:100B100009F440C0DF91CF911F910F910895662392
:100B2000C9F361E070E08C2F0E943F020E946505CE
:100B30006093E9107093EA108093EB109093EC109F
:100B4000E9CF0E9465050091E9101091EA1020910B
:100B5000EB103091EC10AB01BC01401B510B620B50
:100B6000730B8091FB109091FC10B0E0A0E0841713
:100B70009507A607B70748F462E070E08C2FDF9175
:100B8000CF911F910F910C943F0263E070E0D1115F
:100B9000C1CFF4CF70E060E0F1CF862F0C944B040E
:100BA000862F642F0C947404862F642F0C94A20457
:100BB00021E001C0220F6A95EAF7DC011C962C9314
:100BC0001C971A965C934E931997ED91FC910484AF
:100BD000F585E02D60E01994DC01ED91FC9106842F
:100BE000F785E02D41E0199581E090E00895DC0162
:100BF000ED91FC910684F785E02D40E019940F9368
:100C00001F93CF93DF9300D000D01F921F92CDB7D8
:100C1000DEB7009175021091760220917702309133
:100C200078020D831E832F833887009179021091FB
:100C30007A0220917B0230917C0209831A832B83F4
:100C40003C8390917F10691710F06FEF690F262F8A
:100C500030E0409180102C0F3D1FF901403199F494
:100C6000943089F46181680F606888E790E1289684
:100C70000FB6F894DEBF0FBECDBFDF91CF911F91AD
:100C80000F910C94F7056581EECFEF92FF920F93D1
:100C90001F93CF93DF938B0198E0899FB0011124BC
:100CA000606488E790E10E94F70583E790E0019790
:100CB000F1F7E801085F1F4F8BE9E82EF12C6991ED
:100CC00088E790E10E94EC05C7010197F1F7C01792
:100CD000D107A9F7DF91CF911F910F91FF90EF906E
:100CE0000895DC01ED91FC910484F585E02D6FEF12
:100CF000199461E00E94F7058BE39FE10197F1F7FA
:100D000008950F931F93CF93DF93EC01423018F0B7
:100D10008C8188608C834F836887222329F041303F
:100D200019F48C8184608C8364E670E080E090E04C
:100D30000E9432056C8164FD52C0E881F98106840D
:100D4000F785E02D42E063E0CE0119958BE496E44F
:100D50000197F1F7E881F9810684F785E02D42E0FB
:100D600063E0CE01199503E512E0C8010197F1F7A0
:100D7000E881F9810684F785E02D42E063E0CE0149
:100D80001995C8010197F1F7E881F9810684F78583
:100D9000E02D42E062E0CE011995C8010197F1F71C
:100DA0006C816062CE010E94F7058BEE90E00197A6
:100DB000F1F784E08D836CE0CE010E94F705CE014F
:100DC0000E94790682E08E8366E0CE010E94F705DC
:100DD000CE01DF91CF911F910F910C94710660624B
:100DE000CE010E94F7058BE496E40197F1F76C8140
:100DF0006062CE010E94F70503E512E0C801019789
:100E0000F1F76C816062CE010E94F705C6CF0895AC
:100E100008952091E50A260F3327331F213231052B
:100E2000ECF42091400BFC0190E080E0243069F06C
:100E300082E00895A091E50A2191AC014B53554FF2
:100E4000A40FB52FB11D2C930196861798F38091AE
:100E5000E50A680F6093E50A80E0089581E008954F
:100E60001092400B81E080933F0B10921A0B61E0CF
:100E700084E10E94740461E085E10E947404E9EB5E
:100E8000F0E080818E7F808380818D7F808388E405
:100E90008093B80085E48093BC000895CF93DF93DE
:100EA00091E09093C40A8823B9F0C091B800D09122
:100EB000BA008091BC008A7B8093BC0060E084E132
:100EC0000E94740460E085E10E9474040E9430076F
:100ED000D093BA00C093B800DF91CF910895CF921C
:100EE000DF92EF92FF920F931F93CF93DF93D091F6
:100EF000690B81E0D13208F09CC0C091680B0E9460
:100F00000D056B017C018091400B81116CC082E06A
:100F10008093400B81E080933F0B8FEF80933E0BDB
:100F200010923D0BD0933C0BA8E4BBE0ECE1FBE05E
:100F300080E0D8138DC010921B0B80911B0BCC0F3F
:100F4000C82BC0931B0B80911A0B813009F084C011
:100F500010921A0B0E940D056B017C0180911B0BF6
:100F60008093BB008091420B9091430BA091440B66
:100F7000B091450B892B8A2B8B2BA1F00E940D057C
:100F80000091420B1091430B2091440B3091450B83
:100F90006C197D098E099F0906171707280739075D
:100FA00008F442C08091BC0083FDD8CF85EC8093CB
:100FB000BC000E940D056B017C018091400B8230CA
:100FC00009F44CC080913E0B8F3F09F469C08091B9
:100FD0003E0B803209F466C080913E0B803309F4E9
:100FE00063C084E026C08091420B9091430BA09196
:100FF000440BB091450B892B8A2B8B2B09F483CFA3
:101000000E940D050091420B1091430B2091440B5F
:101010003091450B6C197D098E099F09061717073A
:101020002807390708F06FCF8091410B0E944E07C7
:1010300085E01092470B1092690B1092460BDF91DE
:10104000CF911F910F91FF90EF90DF90CF90089577
:101050009D9191938F5F6DCF85EEA9CF8091420BCB
:101060009091430BA091440BB091450B892B8A2B97
:101070008B2B09F4A2CF0E940D050091420B109119
:10108000430B2091440B3091450B6C197D098E095F
:101090009F09061717072807390708F08ECFC4CF16
:1010A00080E0C7CF82E0C5CF83E0C3CF0895E09151
:1010B000190B8091180BE81730F4F0E0EC55F54F60
:1010C000808190E008958FEF9FEF08959091190B24
:1010D0008091180B2FEF3FEF981748F4E92FF0E0BD
:1010E000EC55F54F208130E09F5F9093190BC901BB
:1010F00008958091180B9091190B891B990B0895F5
:10110000CF92DF92EF92FF920F931F93CF93DF93D3
:101110007C01CB018A012091460B222389F0EB014F
:101120006B01C40ED51ECC15DD0569F06991D701A0
:10113000ED91FC910190F081E02DC7011995F3CF5D
:10114000642F0E940907C801DF91CF911F910F9171
:10115000FF90EF90DF90CF900895CF93DF931F9291
:10116000CDB7DEB769832091460B2223F9F0209199
:10117000690B203258F021E030E0FC0133832283F8
:1011800090E080E00F90DF91CF9108958091470B20
:10119000E82FF0E0E85BF44F998190838F5F8093B4
:1011A000470B8093690B81E090E0ECCF61E0CE01CA
:1011B00001960E940907F7CFFC0123812223F1F059
:1011C000262F6181609562236083828191E09093F4
:1011D000460B8093680B1092470B1092690B81E2CB
:1011E00090E10E94AD080E946F07282F30E081E057
:1011F00090E0232B11F090E080E0089530E020E0B3
:10120000F6CFEF92FF920F931F93CF938C01FC01C7
:1012100084E0C0E0262F30E060FF02C09589C92B32
:10122000B90175956795815031968111F3CF4130A1
:1012300011F4F8014489F8016585C62BC42B7801A7
:10124000FEE0EF0EF11CF80162896C2BC7010E94D1
:10125000DC08F801628960956C23C701CF911F916A
:101260000F91FF90EF900C94DC080F931F93CF9396
:10127000DF93062F0F70423041F440E0602FDF9182
:10128000CF911F910F910C940109142FEC0170E084
:1012900084E0759567958A95E1F7CE010E94010972
:1012A000412F602FCE01EBCFFC0184858823A1F074
:1012B000218532852115310521F4611107C015867C
:1012C00006C021303105D9F76111F9CF85876585D1
:1012D000CF010E960C94DC080895EF92FF920F93C5
:1012E0001F93CF93DF93EC01062FF42EE22E8B8514
:1012F000888B1092190B1092180B1092470B1092BA
:10130000690B0E94300782E692E09093170B80935E
:10131000160B83E692E09093150B8093140B88894B
:1013200011E01093460B8093680B0E946F078111A8
:101330001CC0198B81E290E10E9466088E87898922
:10134000882339F01F861C8260E0CE010E960E9431
:10135000DC082E2D4F2D602FCE01DF91CF911F91F4
:101360000F91FF90EF900C948106198AE8CF90E0DE
:1013700080E008958FB7F89480919E0A8FBF0895FA
:1013800061E0FC0184810E94740480919D0A8111B6
:1013900010929D0A08958EBD00000DB407FEFDCF8A
:1013A0008EB508958FEF0C94CB090F931F93CF93B5
:1013B000DF93EC010E9465058B010E94D2098F3FEB
:1013C00069F00E946505601B710B6C177D07A8F31F
:1013D00080E0DF91CF911F910F91089581E0F9CFC7
:1013E0008CBD9DBD0895CF93DF93EC0180919D0A44
:1013F000811109C081E080939D0A80912D10909108
:101400002E100E94F00960E08C81DF91CF910C9446
:1014100074048F929F92AF92BF92FF920F931F938B
:10142000CF93DF93EC01F62E49015A018E81882378
:1014300089F08F8198859C012F5F3F4F38872F83DC
:101440008230924018F40E94D209F3CFCE010E945C
:10145000C0091E82CE010E94F3098CE291E00E9435
:10146000D5098F2D80640E94CB0908E110E0D501D9
:10147000C401002E04C0B695A795979587950A9448
:10148000D2F70E94CB0908501109083F8FEF1807C7
:1014900071F785E9FF2021F028E087E8F2128FEF4D
:1014A0000E94CB0910E00E94D2098A8787FF04C0FE
:1014B0001F3F11F01F5FF7CFDF91CF911F910F9169
:1014C000FF90BF90AF909F908F900895AF92BF9282
:1014D000CF92DF92EF92FF920F931F93CF93DF9300
:1014E000EC016901C801820F931F8130924050F5D1
:1014F0008E81882379F088819981AA81BB818417A4
:101500009507A607B70731F48F819885C816D906C5
:1015100008F042C0488359836A837B838B8583307C
:1015200039F089E0440F551F661F771F8A95D1F760
:101530009A01AB0161E1CE010E94090A882389F07A
:1015400083E08D83CE010E94C00980E0DF91CF91BE
:101550001F910F91FF90EF90DF90CF90BF90AF90D1
:1015600008950E9465055B010E94D2098A878F3F1A
:1015700069F40E9465056A197B096D327140A0F318
:101580008FE08D83CE010E94C009DCCF8E3F89F4AD
:1015900018861F8281E08E838F8198858C159D052A
:1015A00050F40E94D2098F819885019698878F8385
:1015B000F3CF8DE0E6CF6701E00EF11E0E94D20965
:1015C000F60181936F01EE15FF05C1F78F819885B4
:1015D000080F191F18870F838985882319F00115B3
:1015E0001240A0F08E81882389F08F8198859C011C
:1015F0002F5F3F4F38872F838230924018F40E942C
:10160000D209F3CFCE010E94C0091E8281E09ECF95
:10161000CF92DF92EF92FF920F93CF93DF93EC0183
:10162000690182E1411551056105710599F08B85CC
:10163000833039F089E0440F551F661F771F8A9564
:10164000D1F79A01AB0168E1CE010E94090A882313
:1016500019F084E08D832DC08EEF0E94CB097601B6
:101660008EEFD81AF70181917F010E94CB09EC140B
:10167000FD04C1F78FEF0E94CB098FEF0E94CB09C9
:101680000E94D2098A878F71853071F4011116C0CA
:10169000CE010E94C00981E0DF91CF910F91FF90B0
:1016A000EF90DF90CF90089581E18D83CE010E946D
:1016B000C009CE010E94C00980E0EECF88E592E02B
:1016C0000E94D509811102C085E1C4CF20E030E03D
:1016D000A9016DE0CE010E94090A882311F084E17E
:1016E000B9CF0E94D2098111FACFD2CF0F93409186
:1016F000A00A5091A10A6091A20A7091A30A411513
:1017000051056105710599F0082F2DEA3BE08091A4
:10171000AB0B9091AC0B0E94080B882349F0109200
:10172000A00A1092A10A1092A20A1092A30A81E0C4
:101730000F9108950F93CF93C82F80919F0A811125
:1017400005C0C1E08C2FCF910F91089540911902EF
:1017500050911A0260911B0270911C020C2F2DEA0D
:101760003BE08091AB0B9091AC0B0E94080B811178
:1017700002C0C0E0E7CFCC2321F381E00E94760BCA
:101780008823B9F310929F0ADDCF8F929F92AF9278
:10179000BF92EF92FF920F931F93CF934B015C0187
:1017A000C42F8091190290911A02A0911B02B0914E
:1017B0001C0288159905AA05BB0551F181E00E941C
:1017C0009A0B81110BC080E0CF911F910F91FF9078
:1017D000EF90BF90AF909F908F9008958DEAE82E84
:1017E0008BE0F82E00E012E030E020E0B501A4012B
:1017F0008091AB0B9091AC0B0E94660A882319F381
:101800008092190290921A02A0921B02B0921C02BE
:1018100040919F0A4C2B40939F0A81E0D5CFCF93F4
:10182000DF93EC016E857F858889998941E00E946C
:10183000C50B882351F08A8920E2829FC0011124C0
:101840008355944FDF91CF91089590E080E0FACFD7
:101850008F929F92AF92BF92CF92DF92EF92FF92C0
:10186000CF932FE230E13093AC0B2093AB0B882366
:1018700009F46DC040E060E070E0CB010E94C50B50
:1018800081110BC080E0CF91FF90EF90DF90CF905F
:10189000BF90AF909F908F90089580916B0D8F7740
:1018A00089F78091770D9091780DA091790DB09185
:1018B0007A0D84369105A105B10520F3C090730D12
:1018C000D090740DE090750DF090760DC114D10498
:1018D000E104F104B9F240E0C701B6010E94C50B72
:1018E000882381F28091B80B9091B90B81159240B9
:1018F00049F6A091BD0BAA2329F26091BB0B709110
:10190000BC0B6115710509F4BDCF2091BA0B2223E0
:1019100009F4B8CFA0934D1020933F1090E080E0E1
:1019200030E0E1E0F0E0C82FAF01082E02C0440F24
:10193000551F0A94E2F72417350769F041E0480F74
:1019400001968930910579F7409348109BCFC12CBF
:10195000D12C7601C0CF809348102091C30B3091D9
:10196000C40B50E040E02115310541F42091D10B2A
:101970003091D20B4091D30B5091D40B2093401057
:101980003093411040934210509343104601570149
:10199000860E971EA11CB11C80924E1090924F1083
:1019A000A0925010B0925110E091BE0BF091BF0B7D
:1019B000F0935410E0935310B0E00E94FE63DC01FA
:1019C000CB01880D991DAA1DBB1D809355109093C6
:1019D0005610A0935710B093581025E0EE0FFF1F3C
:1019E0002A95E1F7E150FE4FEF2FFF27E6958E0F86
:1019F0009F1FA11DB11D8093491090934A10A09381
:101A00004B10B0934C108090C00B9090C10BB12C38
:101A1000A12C8114910441F48090CD0B9090CE0BB9
:101A2000A090CF0BB090D00BC81AD90AEA0AFB0AD3
:101A3000C80CD91CEA1CFB1C04C0F694E794D7948C
:101A4000C794CA95D2F7C0924410D0924510E09244
:101A50004610F092471085EFC8168FE0D806E104D3
:101A6000F10428F48CE08093521081E00CCF80E1E7
:101A700025EFC2162FEFD206E104F104A0F3809106
:101A8000D90B9091DA0BA091DB0BB091DC0B80931A
:101A9000551090935610A0935710B093581080E2B1
:101AA000E2CF4F925F926F927F928F929F92AF920E
:101AB000BF92CF92DF92EF92FF920F931F93CF933B
:101AC000DF93EC01423051056105710590F480E02F
:101AD000DF91CF911F910F91FF90EF90DF90CF900A
:101AE000BF90AF909F908F907F906F905F904F903E
:101AF000089589859A85AB85BC850196A11DB11D88
:101B000084179507A607B70710F3CB88DC88ED8804
:101B1000FE888F89803109F042C0BB27A72F962FFE
:101B2000852F480159012A013B01C80ED91EEA1E22
:101B3000FB1E8091190290911A02A0911B02B09194
:101B40001C02C816D906EA06FB0699F58F89803172
:101B5000C1F5B301A201552766277727440F551F0A
:101B60004355544FFA019182808280919F0A81608F
:101B700080939F0A8A89823080F08D819E81AF8117
:101B8000B8858C0D9D1DAE1DBF1D8093A00A90933E
:101B9000A10AA093A20AB093A30A81E099CFDB0126
:101BA000CA01E7E0B695A79597958795EA95D1F78D
:101BB000B8CF40E0C701B6010E94C50B8111C6CF66
:101BC00086CFB301A2014F77552766277727440FA9
:101BD000551F440F551F4355544FFA01808291827F
:101BE000A282B382C2CF8F929F92AF92BF92CF92C6
:101BF000DF92EF92FF920F931F93CF93DF93FC013D
:101C000081859285A385B4850196A11DB11D841798
:101C10009507A607B70770F480E0DF91CF911F9179
:101C20000F91FF90EF90DF90CF90BF90AF909F907B
:101C30008F90089583889488A588B6888789803195
:101C400089F5BB27A72F962F852FE9016A017B0114
:101C50008F01BC01CD01680D791D8A1D9B1D8090EF
:101C6000190290901A02A0901B02B0901C028616D6
:101C70009706A806B90601F5F8018789803111F5A4
:101C8000DD24EE24FF24F601EE0FFF1FE355F44F91
:101C900080819181B0E0A0E088839983AA83BB838F
:101CA00081E0BBCFDB01CA01C7E0B695A795979548
:101CB0008795CA95D1F7C9CF40E00E94C50B811125
:101CC000DBCFAACFE894C7F8DD24EE24FF24F60189
:101CD000EE0FFF1FEE0FFF1FE355F44F8081918140
:101CE000A281B381BF70D8CF4F925F926F927F92E3
:101CF000AF92BF92CF92DF92EF92FF920F931F931A
:101D0000CF93DF9300D01F92CDB7DEB78C0149830C
:101D10005A836B837C835901C12CD12C7601412CD1
:101D200082E0582E612C712C49815A816B817C8113
:101D30009E012F5F3F4FC8010E94F30D882339F1A8
:101D4000F8018585A301920104C0220F331F441FAF
:101D5000551F8A95D2F7DA01C901C80ED91EEA1EAD
:101D6000FB1E49815A816B817C818789803111F109
:101D700088EF9FEFAFEFBFE0481759076A077B076F
:101D800098F2F501C082D182E282F38281E00F9065
:101D90000F900F900F90DF91CF911F910F91FF90B7
:101DA000EF90DF90CF90BF90AF907F906F905F905B
:101DB0004F90089588EF9FEFA0E0B0E0DDCFCF9384
:101DC000DF93FC012581222321F080E0DF91CF9178
:101DD0000895EC0180915210803159F582E085839D
:101DE000178A108E118E128E80915310909154107C
:101DF000B0E0A0E025E0880F991FAA1FBB1F2A951D
:101E0000D1F7838B948BA58BB68B8BE390E19C8F62
:101E10008B8F81E08C831E821F82188619861A861A
:101E20001B861C861D861E861F86188A198A1A8A9A
:101E3000CDCF803251F683E085834091551050918B
:101E400056106091571070915810478B508F618FCA
:101E5000728F9F012D5E3F4F8BE390E10E94740EC5
:101E60008111D3CFB2CF8F929F92AF92BF92CF9278
:101E7000DF92EF92FF920F931F93CF93DF93EC01CA
:101E80008D8181110EC080E0DF91CF911F910F9164
:101E9000FF90EF90DF90CF90BF90AF909F908F908A
:101EA00008950B891C892D893E890417150726077B
:101EB000370748F34A015B01823031F48A869B86FA
:101EC000AC86BD8681E0E0CF81149104A104B10409
:101ED00049F41E821F82188619861A861B861C8664
:101EE0001D86F0CF0A851B852C853D85EB8DFC8DED
:101EF000858590E00996B901A80141505109610911
:101F00007109082E04C076956795579547950A94F0
:101F1000D2F775016401E1E0CE1AD108E108F108B9
:101F200004C0F694E794D794C7948A95D2F7C41660
:101F3000D506E606F70620F0012B022B032B11F540
:101F40008F89988DA98DBA8D8E839F83A887B98735
:101F50008E010A5F1F4FC114D104E104F10409F49A
:101F6000ADCF4E815F816885798598018B8D9C8D81
:101F70000E94F30D91E0C91AD108E108F10881111E
:101F8000EACF81CFC41AD50AE60AF70AE1CF3F9219
:101F90004F925F926F927F928F929F92AF92BF9279
:101FA000CF92DF92EF92FF920F931F93CF93DF9325
:101FB000CDB7DEB72C970FB6F894DEBF0FBECDBFFE
:101FC0005C01DC015B968D909C905C9716964D9021
:101FD0005D906D907C9019974114510461047104D7
:101FE00009F468C0BFEF4B1A5B0A6B0A7B0A312CFD
:101FF000F40181859285A385B4859C01AD012F5F95
:102000003F4F4F4F5F4F29873A874B875C8773015C
:1020100062011D821E821F821886F40181859285CD
:10202000A385B4852D813E814F81588528173907B6
:102030004A075B0708F056C089859A85AB85BC8541
:102040008C159D05AE05BF0550F482E0C82ED12C3D
:10205000E12CF12C92E0492E512C612C712C9E0127
:102060002F5F3F4FB701A601C4010E94F30D8823E3
:10207000C9F189819A81AB81BC81892B8A2B8B2BF9
:1020800009F1260137019FEF491A590A690A790AAD
:102090002D813E814F8158852F5F3F4F4F4F5F4FBE
:1020A0002D833E834F8358873FEFC31AD30AE30A39
:1020B000F30AB3CFF40140805180628073803324EF
:1020C000339496CFC414D504E604F70409F70FEF50
:1020D0001FEF2FEF3FE0B701A601C4010E94510D91
:1020E000811119C080E02C960FB6F894DEBF0FBEA8
:1020F000CDBFDF91CF911F910F91FF90EF90DF90B7
:10210000CF90BF90AF909F908F907F906F905F9097
:102110004F903F900895D50116964D915D916D9128
:102120007C911997411551056105710539F09701A9
:102130008601C4010E94510D8823A1F2D501169693
:10214000CD92DD92ED92FC921997332051F0D70198
:10215000C6010196A11DB11DF40180839183A28364
:10216000B383F5018789908DA18DB28D892B8A2B40
:102170008B2B39F48481C78AD08EE18EF28E8068F1
:102180008483F50184818062848381E0ACCF2F92C7
:102190003F924F925F926F927F928F929F92AF92F7
:1021A000BF92CF92DF92EF92FF920F931F93CF9344
:1021B000DF93EC015B012A018D81811115C08FEF46
:1021C0009FEFDF91CF911F910F91FF90EF90DF90E4
:1021D000CF90BF90AF909F908F907F906F905F90C7
:1021E0004F903F902F9008958C8180FFE8CF0B890E
:1021F0001C892D893E894A855B856C857D85C20158
:10220000B0E0A0E068017901C41AD50AE60AF70A2D
:10221000C816D906EA06FB0618F42801441A550A1E
:1022200042011E0126E0220E311C8114910409F4A2
:10223000B3C04A855B856C857D856A0181E0D822C3
:102240008B8D9C8D8A019B01E9E03695279517952A
:102250000795EA95D1F7ED81E230E1F5FC01628D59
:10226000738D848D958D600F711F821F931F612C5C
:1022700022E0722E6C187D088614970408F434014D
:102280002C8126FD04C06114F2E07F0671F40091F8
:10229000190210911A0220911B0230911C0206179C
:1022A00017072807390709F053C040E00E94C50B03
:1022B000882309F484CFC6018355944FD5019C012E
:1022C000260D371DFC012E173F0709F460C0419110
:1022D0004D93F9CFFC0174807A947022C114D1041B
:1022E00071F471100CC0452B462B472B39F58F89A3
:1022F000988DA98DBA8D8E839F83A887B987EB8D22
:10230000FC8D6E817F818885998562507109810974
:102310009109258504C0660F771F881F991F2A958C
:10232000D2F70685178520893189600F711F821FBA
:10233000931F670D711D811D911D99CF4E815F8186
:102340006885798591010E94F30D8111D8CF37CF2F
:10235000750183019601AB01BC018091AB0B90919B
:10236000AC0B0E94660A882309F429CFA60CB71C7F
:102370008A859B85AC85BD85860D971DA11DB11DE8
:102380008A879B87AC87BD87861897084ECF281B06
:10239000390BA20EB31EECCFC20113CF1F93CF9304
:1023A000DF93FC012581222371F1162FEC0184813A
:1023B00087FF1EC0CF010E940F0CFC01892B19F171
:1023C0008D81823040F48B899C89AD89BE89848F50
:1023D000958FA68FB78F8F89988D938F828F8F89D6
:1023E000988DA98DBA8DB58BA48B8C818F778C83BA
:1023F000111103C08C818F7E8C83812FDF91CF914F
:102400001F910C949A0B80E0DF91CF911F9108955A
:10241000FF920F931F93CF93DF93EC018D81813057
:1024200041F090E080E0DF91CF911F910F91FF90FC
:1024300008958C8181FFF5CF82FD1BC00091AB0B0D
:102440001091AC0BC8010E94F3090E94D209F82E2A
:10245000C8010E94C0098FEFF812E3CF8C8185FF7D
:102460001BC060E0CE010E94CE118C818F7D8C83D9
:10247000D8CF4B895C896D897E898A859B85AC859F
:10248000BD8584179507A607B707C1F2CE010E9444
:10249000330F8111D3CFC5CF4091A00A5091A10A2B
:1024A0006091A20A7091A30A452B462B472B21F07D
:1024B00080E00E94760BB5CF80618C832A853B85B6
:1024C000317080E092E0821B930BADCFCF93DF930E
:1024D000EC0161E00E94CE11882311F01D8281E0A1
:1024E000DF91CF910895CF92DF92EF92FF921F93E9
:1024F000CF93DF9380915E10882321F089E590E1EE
:102500000E94661210923A101092381010923510F4
:102510001092341085E3809333100E946505EB011F
:1025200061E0809133100E94A20461E08091331039
:102530000E9474041FB7F8948091AA0B811127C0E0
:10254000E7E4F3E08491E1E0F3E09491E82FF0E038
:10255000EE0FFF1FEE54FD4FA591B491EC91E923CE
:1025600021F461E085E30E94740461E085E30E9448
:10257000A2048CB580618CBD8CB580648CBD61E09B
:1025800084E30E94A20461E083E30E94A20480919C
:10259000AA0B8F5F8093AA0B1FBF82E580932D103B
:1025A00010922E1080912D1090912E100E94F00903
:1025B0001AE08FEF0E94CB091150D9F78FE290E11A
:1025C0000E94F30920E030E0A90160E08FE290E191
:1025D0000E94090A182F80933910813081F00E94DF
:1025E00065056C1B7D0B613D774060F381E0809356
:1025F00034108FE290E10E94C00990E078C02AEA8E
:1026000031E040E050E068E08FE290E10E94090A8A
:1026100082FF2AC010933A1080913A10C12CD12C1D
:102620007601823029F4C12CD12CE12C80E4F82EE3
:1026300020E030E0A90167E38FE290E10E94090AFF
:10264000A701960169E28FE290E10E94090A809356
:1026500039108823C1F00E9465056C1B7D0B613D1C
:10266000774030F388E0C3CF14E00E94D209809312
:1026700039101150D1F78A3A11F082E0B8CF82E0D8
:1026800080933A10C9CF80913A108230D1F420E083
:1026900030E0A9016AE38FE290E10E94090A8823F1
:1026A00011F086E0A4CF0E94D209807C803C19F40E
:1026B00083E080933A100E94D2090E94D2090E94BE
:1026C000D2098FE290E10E94C00980E580932D102D
:1026D00010922E1081E00E94280C882389F089E551
:1026E00090E10E94DF0E91E0882309F486CF892FC4
:1026F000DF91CF911F91FF90EF90DF90CF900895E1
:1027000080E00E94280C882309F477CFE8CF2F922D
:102710003F924F925F926F927F928F929F92AF9271
:10272000BF92CF92DF92EF92FF920F931F93CF93BE
:10273000DF9300D01F921F92CDB7DEB77C015B0103
:10274000342E5D83DC0115968C911597813009F04C
:10275000CEC014962C9021FECAC022FCB4C0C32C5B
:10276000DD8022947FE027222094B22DB1702B2EA1
:10277000D7011A964D915D916D917C911D97C11471
:10278000D10409F428C15B968D919C915C97FC0162
:1027900074807A948A019B0169E036952795179594
:1027A00007956A95D1F770228A011170711020C0C7
:1027B00001151105E9F416964D915D916D917C918D
:1027C0001997411551056105710509F099C0579692
:1027D0008D919D910D90BC91A02D0097A105B10503
:1027E00009F0B0C0C7010E94C70F882309F47FC059
:1027F00080E092E0801B910B46018C159D0508F44A
:102800004C01D7015B964D915C915C9716968D912A
:102810009D910D90BC91A02D0297A109B109FA01DB
:10282000258504C0880F991FAA1FBB1F2A95D2F7C0
:102830004685578560897189840F951FA61FB71F2C
:102840009C01AD01270D311D411D511D29013A018A
:10285000811432E0930609F07BC0809119029091B7
:102860001A02A0911B02B0911C0284159505A605C1
:10287000B70559F48FEF9FEFDC0180931902909315
:102880001A02A0931B02B0931C02022D9501B30102
:10289000A2018091AB0B9091AC0B0E94080B882396
:1028A00031F19EEFB91AC818D908F70182859385CE
:1028B000A485B585880D991DA11DB11D82879387BB
:1028C000A487B58755CFF7014389548965897689EF
:1028D00082859385A485B585481759076A077B07C4
:1028E00009F43DCFC7010E94330F811138CF81E039
:1028F00090E0D70113969C938E93129780E007C0C7
:102900009E012F5F3F4F0E94F30D811102C090E0A6
:1029100079C089819A81AB81BC81F701238D348D87
:10292000F901278948EF5FEF60E070E0203121F086
:1029300048EF5FEF6FEF7FE084179507A607B707B3
:1029400008F050CFF70186839783A087B18750CFD7
:102950000115110599F5D7011A964D915D916D916B
:102960007C911D9753968D919D910D90BC91A02DBA
:10297000481759076A077B0708F181E00E949A0B04
:10298000882309F4B4CF4092190250921A0260923F
:102990001B0270921C0280919F0A816080939F0AA3
:1029A000C8018355944FD5019C01280D391DFC01A8
:1029B0002E173F0759F04D914193FACF41E0C301E3
:1029C000B2010E94C50B8111EBCF91CF281B390BAF
:1029D000A20EB31E68CFF70183899489A589B689B1
:1029E00084179507A607B70738F48481438B548B67
:1029F000658B768B80688483F701848183FD1AC0A0
:102A0000832D9D810F900F900F900F900F90DF916D
:102A1000CF911F910F91FF90EF90DF90CF90BF90DB
:102A2000AF909F908F907F906F905F904F903F906E
:102A30002F90089561E0C7010E94CE11882309F408
:102A400056CFDECFCF93DF931F92CDB7DEB769832A
:102A500041E050E0BE016F5F7F4F0E9487130F90EF
:102A6000DF91CF910895FC01DB0112968D919C912D
:102A700013979383828385ED92E0918380831496EC
:102A80008C911497848315968C911597858316964F
:102A90004D915D916D917C91199746835783608725
:102AA00071871A964D915D916D917C911D9742872A
:102AB0005387648775871E964D915D916D917C91CA
:102AC000519746875787608B718B52968C9152979E
:102AD000828B53964D915D916D917C915697438B6E
:102AE000548B658B768B57964D915D916D917C9152
:102AF0005A97478B508F618F728F5B968D919C9107
:102B0000948F838F0895FC01818D928D009719F029
:102B100061E00C94CE110895DC015996ED91FC9181
:102B20003097B9F083899489A589B6894285538500
:102B300064857585841B950BA60BB70B811520E862
:102B40009207A105B10538F08FEF9FE7A0E0B0E054
:102B5000089590E080E00895DC0159968D919C9154
:102B6000009739F0DC01ED91FC910480F581E02DB6
:102B7000199490E080E00895CF93DF93EC01E98D04
:102B8000FA8D309749F481E090E09B838A8390E04E
:102B900080E0DF91CF91089513821282898D9A8D02
:102BA0000E948713E98DFA8D22813381232B59F7F7
:102BB000F0CFCF93DF931F92CDB7DEB76983DC01EF
:102BC000ED91FC910280F381E02D41E050E0BE01E7
:102BD0006F5F7F4F19950F90DF91CF910895CF933D
:102BE000DF931F92CDB7DEB741E050E0BE016F5FCB
:102BF0007F4F0E94C710019731F4898190E00F90B8
:102C0000DF91CF9108958FEF9FEFF9CFFC01818D78
:102C1000928D009711F00C94EF158FEF9FEF0895B0
:102C20000F931F93CF93DF93EC01898D9A8D10E062
:102C300000E0009799F00E94EF158C010F3F1007FC
:102C400069F0898D9A8DFC0142855385648575856F
:102C500041505109610971090E94330FC801DF9188
:102C6000CF911F910F910895CF93DF93EC0181E0F5
:102C70000E94FF05BE0188E790E1DF91CF910C949F
:102C8000770261E087E00E94740464E670E080E00F
:102C900090E00E94320560E087E00C94740420917B
:102CA000640A3091650AECE6FBE080E2AF014C5625
:102CB0005B402417350714F08193F8CF1092650A12
:102CC0001092640A08951F93CF93DF93D0E0C0E081
:102CD000C230D105E9F1C330D10509F444C0C13097
:102CE000D10539F160E080E00E94FF0562E088E7ED
:102CF00090E10E94EC0511E060E0812F0E94FF0549
:102D000061E088E790E10E94EC051F5F1331A1F7B5
:102D100060E083E10E94FF0564E088E790E10E94A3
:102D2000EC052196C430D10599F6DF91CF911F9122
:102D3000089561E080E00E94FF0560E088E790E18F
:102D40000E94EC0561E083E10E94FF0560E0E5CFB1
:102D500062E080E00E94FF0560E088E790E10E9469
:102D6000EC0562E0F0CF63E080E00E94FF0563E0E5
:102D700088E790E10E94EC0511E063E0812F0E945A
:102D8000FF0561E088E790E10E94EC051F5F1331C9
:102D9000A1F763E083E10E94FF0565E0BECF8F925B
:102DA0009F92AF92BF92CF92DF92EF92FF920F93DA
:102DB0001F93CF93DF9300D01F92CDB7DEB7FC01F6
:102DC0008581813091F080E00F900F900F900F90EF
:102DD000DF91CF911F910F91FF90EF90DF90CF90F7
:102DE000BF90AF909F908F900895848181FFEBCF2B
:102DF00083899489A589B689892B8A2B8B2B09F421
:102E00005FC07F0140E050E0BA01CF010E94330F64
:102E10008823C9F2F701C38CD48C8788908CA18C4D
:102E2000B28C82E090E0A0E0B0E0F6018083918374
:102E3000A283B3839E012F5F3F4FB501A401C6015A
:102E40000E94F30D882309F4BECF00E010E0980142
:102E5000B501A401C6010E94510D882309F4B3CF26
:102E600089809A80AB80BC80F6018789803119F116
:102E700088EF9FEFAFEFBFE088169906AA06BB0662
:102E8000C8F2F701178A108E118E128E138A148AD7
:102E9000158A168A84818068848361E0C7010E9454
:102EA000CE11882309F48FCF40E050E0BA01C7016A
:102EB0000E94330F89CF88EF9FEFA0E0B0E0DCCF16
:102EC00081E082CFCF92DF92EF92FF921F93CF9358
:102ED000DF93EC0180E2689FF0011124E355F44F89
:102EE0009385917161F0842F827449F080E0DF91C5
:102EF000CF911F91FF90EF90DF90CF900895142F06
:102F00006A8B8091190290911A02A0911B02B091D4
:102F10001C028E879F87A88BB98BC488D588F12C1B
:102F2000E12C7601DD24CC24CF8AD88EE98EFA8E6E
:102F3000828D938DB0E0A0E0AC01BD014C295D29EC
:102F40006E297F294F8B588F698F7A8F838588717F
:102F5000B1F4848D958DA68DB78D8B8B9C8BAD8BAD
:102F6000BE8B81E08D831F701C831E821F8218869A
:102F700019861A861B861C861D8681E0B8CF803193
:102F800009F0B4CF9E012D5E3F4F8B8D9C8D0E942A
:102F9000740E882309F4AACF84E0E4CFCF93DF93A3
:102FA000EC012C813D8184E190E0821B930B97FD25
:102FB0000196959587950E94FF05BE0188E790E1EF
:102FC000DF91CF910C9477020F931F93CF93DF93F0
:102FD000082F162FD42FC8E06D2F661F6627661F97
:102FE000802F0E947404DD0F61E0812F0E94740421
:102FF00060E0812F0E947404C15071F7DF91CF917E
:103000001F910F9108951F93CF93DF93182FC9E954
:10301000D1E161E089810E94A20461E089810E947E
:10302000740461E088810E94740460E089810E94D8
:10303000740460E088810E947404412F6881898152
:10304000DF91CF911F910C94E4171F93CF93DF93DF
:10305000182FC9E9D1E161E089810E94A204412FC2
:1030600068818981DF91CF911F910C94E417CF93F0
:10307000DF939091A211992349F194EE9093BC00B3
:103080009091BC0097FFFCCF90ED9093BB0094EC27
:103090009093BC009091BC0097FFFCCF8093BB0045
:1030A00084EC8093BC008091BC0087FFFCCF6093D0
:1030B000BB0084EC8093BC008091BC0087FFFCCFF8
:1030C00084E98093BC00DF91CF910895C62FD82F5B
:1030D00080ED0E9403180E94DE048D2F0E942518A7
:1030E0000E94DE048C2F0E9425180E94DE04DF91CE
:1030F000CF910C94F304BF92CF92DF92EF92FF92A4
:103100000F931F93CF93DF9300D000D01F921F9295
:10311000CDB7DEB78091A211882309F49EC084EE5A
:103120008093BC008091BC0087FFFCCF80ED809332
:10313000BB0084EC8093BC008091BC0087FFFCCF77
:103140001092BB0084EC8093BC008091BC0087FF90
:10315000FCCF84EE8093BC008091BC0087FFFCCF45
:1031600081ED8093BB0084EC8093BC008091BC0017
:1031700087FFFCCFEBE9F1E182EA91E134EC309397
:10318000BC002091BC0027FFFCCF2091BB00219305
:103190008E179F07A1F784E88093BC008091BC0044
:1031A00087FFFCCF84E98093BC0040919B11842F62
:1031B000829587705AE04F70859F400D11243091A1
:1031C0009C11832F829587703F70859F300D11244D
:1031D00060919D11262F2F70862F90E067FFAAC067
:1031E00065FB882780F9FCE08F9F200D1124F0916A
:1031F0009E1150919F116091A0118091A111952F66
:10320000929597707AE05F70979F500D1124E62F8A
:10321000E295E7706F70E79F600D1124982F9295EB
:103220009F708F70979F800D112490E08053984F6E
:103230009F838E83782F8F819F2F28960FB6F894C7
:10324000DEBF0FBECDBFDF91CF911F910F91FF90D9
:10325000EF90DF90CF90BF90089580ED0E9403180B
:103260000E94DE0480E00E9425180E94DE0481EDA9
:103270000E9403180E94DE04EBE9CE2EE1E1DE2E6F
:1032800010E000E060E080919A110E94A20477E0D3
:10329000E72EF12CB12C61E0809199110E94740409
:1032A00080919A110E944B0499270E2C01C0880F1F
:1032B0000A94EAF7B82A60E0809199110E94740498
:1032C00081E0E81AF10838F7F601B1926F018091B8
:1032D0009A1161E00630110521F10E94A20460E01C
:1032E000809199110E94740460E080919A110E946B
:1032F000740461E0809199110E94740460E08091EF
:1033000099110E94740460E080919A110E94A204B5
:103310000F5F1F4F0730110509F0B4CF0E94F3046F
:1033200044CF0E94A20460E0809199110E9474042D
:1033300061E0DBCF64E0959587956A95E1F783704E
:10334000859F200D112453CF0E945A66FB010190E6
:103350000020E9F73197AF01461B570BDC01ED91D7
:10336000FC910280F381E02D1994CF93DF93682FB5
:1033700084E89FE00E945203EC016DED72E084E866
:103380009FE00E94A6198C0F9D1FDF91CF91089599
:103390000F931F93CF93DF93EC010E94A6198C012A
:1033A0006DED72E0CE010E94A619800F911FDF9192
:1033B000CF911F910F9108950F931F93CF93DF9398
:1033C000EC010E9477028C016DED72E0CE010E944B
:1033D000A619800F911FDF91CF911F910F91089532
:1033E000682F81E00E94FF0560EE72E088E790E1BF
:1033F0000C94A619FC0180819181009711F00C9426
:103400003A6360E070E0CB010895AF92BF92CF9233
:10341000DF92EF92FF920F931F93CF93DF93DC0124
:10342000CD90DC901197C114D10439F01496CD9150
:10343000DC918C017601209761F4DF91CF911F918F
:103440000F91FF90EF90DF90CF90BF90AF900895D5
:1034500075015701BFEFAB1ABB0AF7018081082E37
:10346000000C990B0E94CC63892B91F72197CC0D0E
:10347000DD1D8881082E000C990B0E94CC63892BDE
:1034800029F0CE15DF0510F02197F3CFAE014F5F85
:103490005F4F4E195F09D80115965C934E931497B0
:1034A000CE14DF0420F4B701C6010E947466D8016F
:1034B000ED91FC91119714968D919C91E80FF91F55
:1034C0001082BBCFFC0124813581232B39F421E00C
:1034D000FB018081882349F020E007C08081918131
:1034E0000E94886621E0892BB9F7822F08950E94F7
:1034F000621A91E0811190E0892F0895FC012481E6
:103500003581FB014481558124173507E1F4FC0125
:1035100080819181FB01608171810097D1F06115FB
:103520007105A1F4232BC1F0FC01808190E008C05B
:10353000232B91F0FB01808190E091958195910979
:1035400021E0892B09F020E0822F08950E948866EF
:10355000F7CF6115710561F721E0F6CF0F931F9347
:10356000CF93DF938C01EB01FC0180819181009767
:10357000E1F06881798161157105A9F0428153817B
:103580002C813D814217530770F00E9491668C8117
:103590009D81F801958384831D821C82DF91CF91E8
:1035A0001F910F9108950E94F06488819981F8011C
:1035B000918380838A819B81938382838C819D8187
:1035C00095838483198218821B821A82E5CFCF9358
:1035D000DF93EC0188819981009711F00E94F064DB
:1035E000198218821D821C821B821A82DF91CF9160
:1035F0000895FC0180819181009711F00C94F06492
:103600000895CF93DF93EC01898D9A8D009741F057
:103610000E946612898D9A8D0E94F0641A8E198E0E
:10362000DF91CF9108950F931F93CF93DF93EC0118
:1036300088819981009759F02A813B8126173707A5
:1036400030F081E0DF91CF911F910F9108958B01B0
:103650006F5F7F4F0E947965009759F09983888347
:103660001B830A832C813D81232B59F7FC01108297
:10367000E8CF80E0E7CFEF92FF920F931F93CF93B5
:10368000DF936115710541F480E0DF91CF911F91C7
:103690000F91FF90EF90089541155105B1F07B0116
:1036A000EC010C811D81040F151FB8010E94131B32
:1036B000882351F3288139818C819D81B701820F44
:1036C000931F0E9491661D830C8381E0DECF0F93D0
:1036D0001F93CF93DF931F921F92CDB7DEB78C015C
:1036E00069831A8241E050E0BE016F5F7F4F0E9404
:1036F0003B1B811103C0C8010E94E71AC8010F904B
:103700000F90DF91CF911F910F910895CF93DF9389
:10371000EC01FB0101900020E9F73197AF01461B56
:10372000570B0E943B1B811103C0CE010E94E71A78
:10373000CE01DF91CF910895CF93DF93EC01FB0190
:1037400044815581608171810E943B1B811103C0BE
:10375000CE010E94E71ACE01DF91CF910895EF923A
:10376000FF920F931F93CF93DF93EC017B018A01AC
:10377000BA010E94131B81110BC0CE010E94E71AEF
:10378000CE01DF91CF911F910F91FF90EF9008959F
:103790001D830C83B701888199810E949166F0CFC7
:1037A000FB0101900020E9F73197AF01461B570B51
:1037B0000C94AF1B0F931F93CF93DF93CDB7DEB75E
:1037C00062970FB6F894DEBF0FBECDBF8C01CB0160
:1037D000F8011182108213821282158214824AE04B
:1037E000BE016F5F7F4F0E946163BE016F5F7F4FBD
:1037F000C8010E94D01B62960FB6F894DEBF0FBEC0
:10380000CDBFDF91CF911F910F9108950F931F931B
:10381000CF93DF93CDB7DEB7A2970FB6F894DEBF94
:103820000FBECDBF8C01CB01BA01F801118210820D
:1038300013821282158214822AE0AE014F5F5F4F1D
:103840000E946C63BE016F5F7F4FC8010E94D01B56
:10385000A2960FB6F894DEBF0FBECDBFDF91CF9119
:103860001F910F910895CF93DF931F921F92CDB7B1
:10387000DEB7FC011182108213821282158214823B
:1038800069831A82BE016F5F7F4F0E94D01B0F9029
:103890000F90DF91CF910895CF93DF93EC01FB015F
:1038A0008617970749F0608171816115710541F0B4
:1038B000448155810E94AF1BCE01DF91CF910895C5
:1038C0000E94E71AF9CFFC01118210821382128242
:1038D000158214820C944C1CFC01118210821382FC
:1038E0001282158214826115710551F0FB0101905D
:1038F0000020E9F73197AF01461B570B0C94AF1B23
:1039000008954F925F926F927F928F929F92AF92A3
:10391000BF92CF92DF92EF92FF920F931F93CF93BC
:10392000DF93CDB7DEB7E6970FB6F894DEBF0FBED4
:10393000CDBF7C015B01CE0101966C018E01055D5E
:103940001F4F3C016FED72E0C6010E946C1C96E0B7
:10395000C90ED11C0C151D05A9F76FED72E0C7014A
:103960000E946C1C912C812CCC24C394D12C96E009
:10397000592EB601C5010E946402FC016081C80194
:103980000E94331C67EB77E0C8010E94621A482E40
:10399000C8010E94F91A81E0411034C0B601C50186
:1039A0000E946402FC016081C8010E94331C6AEA23
:1039B00077E0C8010E94771A482EC8010E94F91AC0
:1039C000B601C501442009F458C00E946402FC01FC
:1039D0006081C8010E94331CB701CE01C1960E94CC
:1039E000631CB801CE01C1960E949C1BBC01C7019B
:1039F0000E944C1CCE01C1960E94F91AC8010E9477
:103A0000F91A80E09FEFC91AD90A882309F4B1CFC7
:103A10006FED72E0C8010E946C1CBE01635F7F4FB6
:103A2000C8010E944C1CC8010E94051AB801C701B8
:103A30000E94AE1AC8010E94F91A06501109C80165
:103A40000E94F91A60167106C1F7C701E6960FB613
:103A5000F894DEBF0FBECDBFDF91CF911F910F91C4
:103A6000FF90EF90DF90CF90BF90AF909F908F909E
:103A70007F906F905F904F9008950E946402FC01C8
:103A80006081C8010E94331C6AEA77E0C8010E9485
:103A9000621A482EC8010E94F91A442009F4B1CFD5
:103AA000589CC001599C900D1124B701860D971D9B
:103AB0000E944C1C6FED72E0C7010E94D01BFFEF0B
:103AC0008F1A9F0A9ECF9F92AF92BF92CF92DF92A2
:103AD000EF92FF920F931F93CF93DF9300D000D00C
:103AE000CDB7DEB78C015B016FED72E00E946C1CFC
:103AF0008CE6C82E8BE0D82E98E7E92E9BE0F92EB5
:103B0000C70188579B408A159B05DCF4F70181911A
:103B10007F018434B1F0F60191906F01B801CE01BC
:103B200001960E94631C692DCE0101960E94671BBD
:103B3000BC01C8010E944C1CCE0101960E94F91ADA
:103B4000DFCFC80126960FB6F894DEBF0FBECDBFFB
:103B5000DF91CF911F910F91FF90EF90DF90CF9069
:103B6000BF90AF909F900895AF92BF92CF92DF9297
:103B7000EF92FF920F931F93CF93DF936C015B0142
:103B80007A0189012417350720F48F2D7901042F3C
:103B9000182F6FED72E0C6010E946C1CD5011496BF
:103BA000CD91DC91EC16FD06E0F40C171D0708F42E
:103BB000E801D501ED91FC911197EC0FFD1F1081EB
:103BC00010826D917C916E0D7F1DC601611571058E
:103BD000A1F00E94D01BF50180819181C80FD91FEF
:103BE0001883C601DF91CF911F910F91FF90EF9045
:103BF000DF90CF90BF90AF9008950E94E71AEBCF6F
:103C00000F931F93CF93DF9300D000D000D0CDB798
:103C1000DEB78C010E947B1829833A834B835C8337
:103C20006D837E838F83988780E32A3028F0822FEC
:103C30006AE00E941864805D809310023AE0822F4F
:103C4000632F0E941864905D909311028AE3809321
:103C500012022A8180E32A3020F0822F0E94186409
:103C6000805D809313023AE0822F632F0E941864D4
:103C7000905D909314028AE3809315022B8180E378
:103C80002A3020F0822F0E941864805D80931602F3
:103C9000822F6AE00E941864905D90931702109240
:103CA000180289E0E3EFF2E0DE01119601900D9237
:103CB0008A95E1F7E0E1F2E0DE011196819190ED65
:103CC000980F9B3008F48C93119682E0E831F80746
:103CD000A9F7BE016F5F7F4FC8010E946C1CC8012D
:103CE00029960FB6F894DEBF0FBECDBFDF91CF91FE
:103CF0001F910F9108950F931F93CF93DF9300D0DF
:103D000000D000D01F921F92CDB7DEB78C010E9469
:103D10007B1829833A834B835C836D837E838F83F7
:103D2000988780E35A3028F0852F6AE00E94186453
:103D3000805D809305023AE0852F632F0E9418640E
:103D4000905D909306028EE2809307022D8180E3BE
:103D50002A3020F0822F0E941864805D8093080230
:103D6000822F6AE00E941864905D909309028EE2AF
:103D700080930A022E813F81C90168EE73E00E94A0
:103D80002464605D60930B02E4E6F0E0BF010E94F2
:103D90002464605D60930C02C901BF010E94246429
:103DA000EAE0F0E0BF010E942464605D60930D02D0
:103DB000C901BF010E942464805D80930E021092AD
:103DC0000F028BE0ECEFF2E0DE01119601900D9214
:103DD0008A95E1F7E5E0F2E0DE0111968191282F66
:103DE000082E000C330B205331092A30310510F016
:103DF0008E3209F48C93119682E0E031F80771F766
:103E0000BE016F5F7F4FC8010E946C1CC8012B96DA
:103E10000FB6F894DEBF0FBECDBFDF91CF911F91DB
:103E20000F9108950F931F93CF93DF93CDB7DEB714
:103E30006E970FB6F894DEBF0FBECDBF8C01CE01DA
:103E400007960E947B1E2B853C8548E050E0BE0112
:103E5000695F7F4FCE010D960E94B41D25E030E0D2
:103E600043E050E0BE01695F7F4FCE0143960E9460
:103E7000B41D22E030E050E040E0BE01695F7F4FBA
:103E8000CE0149960E94B41DBE01635F7F4FCE01F3
:103E900001960E94631C63E473E0CE0101960E94C8
:103EA000861BBE016D5E7F4F0E949C1B63E473E026
:103EB0000E94861BBE01675E7F4F0E949C1BBC0157
:103EC000C8010E94631CCE0101960E94F91ACE011E
:103ED00049960E94F91ACE0143960E94F91ACE0122
:103EE0000D960E94F91ACE0107960E94F91AC80190
:103EF0006E960FB6F894DEBF0FBECDBFDF91CF91A7
:103F00001F910F910895EF92FF920F931F93CF93FC
:103F1000DF9300D000D0CDB7DEB77C018B0167E026
:103F200073E0CE0101960E946C1CB701CE01019690
:103F30000E949C1B6FE073E00E94861BBC018DEA0F
:103F40009DE00E94DC19CE0101960E94F91A68ECEE
:103F500070E080E090E00E943205B8018DEA9DE0BB
:103F60000E9477026AEF70E080E090E00E943205E4
:103F70006AE18DEA9DE00E9452036AEF70E080E002
:103F800090E00E9432058DEA9DE00E949F03EDEAD9
:103F9000FDE0A289B3898C918F7E8C93A289B3892D
:103FA0008C91877F8C93A289B3898C918F778C9326
:103FB000A289B3898C918F7D8C93828D818FCF0163
:103FC0000E94E10126960FB6F894DEBF0FBECDBF6A
:103FD000DF91CF911F910F91FF90EF90089585EDA4
:103FE0008093BC008091420B9091430BA091440BB5
:103FF000B091450B0796A11DB11D23E0B695A7957D
:10400000979587952A95D1F72091BC0024FD03C090
:104010001092400B08954091420B5091430B6091D8
:10402000440B7091450B452B462B472B69F30097AA
:10403000A105B10541F025E32A95F1F700000197AC
:10404000A109B109E1CF8091410B0C944E073F9239
:104050004F925F926F927F928F929F92AF92BF9298
:10406000CF92DF92EF92FF920F931F93CF93DF9344
:1040700000D000D000D01F921F92CDB7DEB77C01D8
:10408000DC0115968C91811115C0FE013196CE018F
:104090000C966F0130E23193E817F907E1F7DA0186
:1040A00030E087E09D91B92E992329F19E3239F4B1
:1040B0008A3011F480E0DAC038E08AE0F3CFE8E239
:1040C000F2E04491442321F031969413FACFF2CFD9
:1040D000831780F34FED490F4E3560F74FE9490FD5
:1040E0004A3118F440EEB42EB90EF601E30FF11D7B
:1040F000B0823F5FD7CF89818032E1F2322E8B01CF
:10410000FB01838D948DD7015C969C938E935B9776
:1041100016821782108611861286138614861586DB
:10412000F80182859385A485B5854389548965897D
:10413000768984179507A607B70708F04DC025E0D4
:10414000B695A795979587952A95D1F7F82FFF7083
:10415000AF2ED80115968C91823008F4ABCFC801F0
:104160000E94EF1597FDA6CFF80182859385A4855F
:10417000B5854F96A11DB11D82879387A487B5870A
:10418000F0E2AF9EB00111246355744F61157105C3
:1041900009F490CFDB018C91882341F0853E09F032
:1041A00058C0BB2029F0BB24B394BACFB1100EC0C5
:1041B000F701A28A8091190290911A02A0911B0224
:1041C000B0911C0286879787A08BB18BDB018C9105
:1041D0008111E9CFBB24B394832D8271823109F020
:1041E00069CFBB2009F45AC0C7010E940F0C009789
:1041F00009F460CF20E2FC0111922A95E9F72BE047
:10420000F601DC0101900D922A95E1F721E238E2F6
:10421000DC0151963C932E93509740E058E01F9656
:104220005C934E931E9753963C932E9352975996B8
:104230003C932E93589757965C934E93569781E0F4
:104240000E949A0B882309F435CF432DF701628928
:104250000AC04BE050E0C6010E946766892B09F056
:104260005FCF432D6A2DC7010E9462172B960FB6B0
:10427000F894DEBF0FBECDBFDF91CF911F910F919C
:10428000FF90EF90DF90CF90BF90AF909F908F9076
:104290007F906F905F904F903F900895F8018581D7
:1042A000823009F407CFC8010E94C70F882309F4A0
:1042B00001CFD8015B96ED91FC915C9716968D909D
:1042C0009D90AD90BC901997B2E08B1A9108A1080F
:1042D000B108858504C0880C991CAA1CBB1C8A9552
:1042E000D2F786859785A089B189880E991EAA1E66
:1042F000BB1E848124013501480E511C611C711CB8
:1043000084149504A604B70409F1E1E04E1A51089B
:104310006108710881E00E949A0B882309F4CACED3
:10432000EDEAFBE011928DEA9DE08E179F07D1F731
:104330004092190250921A0260921B0270921C0263
:1043400080919F0A816080939F0ADACFD8015B96A3
:10435000ED91FC91258580E092E0A0E0B0E004C002
:10436000880F991FAA1FBB1F2A95D2F7F80143890E
:10437000548965897689840F951FA61FB71F838B83
:10438000948BA58BB68BD70152961C928DEA9BE03D
:1043900031CF5F926F927F928F929F92AF92BF9236
:1043A000CF92DF92EF92FF920F931F93CF93DF9301
:1043B000CDB7DEB7C754D1090FB6F894DEBF0FBE34
:1043C000CDBF5C013B0119A218A285ED92E09F8F41
:1043D0008E8F1BA21C821B829A8389831E8210E00F
:1043E00000E06E018EE1C80ED11C89E5E82E80E167
:1043F000F82EF501E00FF11F80818F3211F40F5F6D
:104400001F4FD501A00FB11FFE01FB9690E080E089
:104410004F012D912F3249F0222339F00F5F1F4FAA
:10442000019621938C309105A1F7880D991DFC010F
:104430001082F501E00FF11F80818F3211F40F5FC0
:104440001F4FF501E00FF11F508041E0511040E097
:1044500030E020E0B401C701F3011995811121C0BA
:10446000F9E5EF16F0E1FF06C1F480E0C95BDF4F2C
:104470000FB6F894DEBF0FBECDBFDF91CF911F9175
:104480000F91FF90EF90DF90CF90BF90AF909F90F3
:104490008F907F906F905F900895C7010E94661281
:1044A000E4CF552091F021E0A401B701C6010E949C
:1044B0002720982E89E5E81680E1F80681F0C701EB
:1044C0000E946612911010C0D0CF99E5E91690E1D4
:1044D000F90619F0C7010E94661281E0C7CF992042
:1044E00021F2FE0131967F019E2D8F2D7601C92E7E
:1044F000D82E7FCFCF93DF93EC010E94731262E03E
:1045000073E2888199810E94C921C82F89E590E1D1
:104510000E9466128C2FDF91CF910895FF920F9326
:104520001F93CF93DF9300D000D0CDB7DEB78C01BF
:10453000BC01CE0101960E94631CCE0101960E942F
:104540007A22F82ECE0101960E94F91AFF2069F016
:104550000E94731261EC72E2F801808191810E94E5
:10456000C92189E590E10E94661226960FB6F8945B
:10457000DEBF0FBECDBFDF91CF911F910F91FF9096
:104580000895CF93DF93CDB7DEB76D970FB6F8944C
:10459000DEBF0FBECDBF442399F1AB01BC011C822D
:1045A0001B8285ED92E09A8389831E8222E0CE01F0
:1045B00001960E94272081110EC090E081E09111A8
:1045C00001C080E06D960FB6F894DEBF0FBECDBF80
:1045D000DF91CF910895CE0101960E94CF168823D6
:1045E00061F3CE0101960E940F0C009731F325EE86
:1045F000FC0120831E8281E00E949A0B982FDECF5F
:1046000081E0E0CF1F93CF93DF93CDB7DEB76D97F7
:104610000FB6F894DEBF0FBECDBFAB011C821B826C
:1046200025ED32E03A8329831E8221E0BC01CE01D0
:1046300001960E94272011E081110CC010E0812F0B
:104640006D960FB6F894DEBF0FBECDBFDF91CF9150
:104650001F910895CE0101960E946612F0CFEF924D
:10466000FF920F931F93CF93DF93EC017B018A019D
:104670001B821A8288EE93E0A0E0B0E08C839D83D9
:10468000AE83BF8383EC92E0998388838DE190E0D1
:104690000E9454649A8F898F009779F02DE1F70179
:1046A000DC0101900D922A95E1F74CE050E0B80151
:1046B000CE010C960E949866188EDF91CF911F91C3
:1046C0000F91FF90EF9008952F923F924F925F923B
:1046D0006F927F928F929F92AF92BF92CF92DF9212
:1046E000EF92FF920F931F93CF93DF93CDB7DEB777
:1046F000C756D1090FB6F894DEBF0FBECDBF5C011F
:104700003B01A6964FAFA69719A218A285ED92E09D
:104710009F8F8E8F1BA21C821B829A8389831E828D
:104720004E018EE1880E911CC4010E94DF0E6301D0
:104730008E010F5F1F4F240118016FE270E0C60168
:104740000E947D66009709F459C0F60120812F323E
:1047500071F4FFEFCF1ADF0A902F812F8201492ECB
:10476000582E942D852D2801092F182FE6CF8C194E
:104770008D3008F08CE0E82EF12CA701B601CE01B7
:10478000885A9F4F0E949866E8E5F0E0EC0FFD1F05
:10479000EE0DFF1D1082C8010E94661221E0AE01DD
:1047A000485A5F4FB201C8010E942720811120C0E2
:1047B0001EAE1DAE85ED92E09CAF8BAF21961FAE75
:1047C0002197A896EEADFFADA8976E0E7F1EF30160
:1047D0008081811120C0BE01655C7F4FC1010E94B4
:1047E000331543E453E0B101C5010E942F2331C0CA
:1047F000CE0CDF1CC2010E946612B3CFC60186191F
:104800009709A8969FAF8EAFA897B201CE01CB961D
:104810000E943315D6CF19A218A285ED92E09F8F82
:104820008E8F1BA221968FAD219781112DC0F5018E
:104830001382128288EE93E0A0E0B0E08483958337
:10484000A683B78383EC92E091838083128E118ECE
:104850001486C501C959DF4F0FB6F894DEBF0FBEED
:10486000CDBFDF91CF911F910F91FF90EF90DF901F
:10487000CF90BF90AF909F908F907F906F905F9000
:104880004F903F902F900895A6962FADA697A30125
:10489000BE01655C7F4FC4010E942720882339F246
:1048A000CE01CB960E946612A6968FADA697867013
:1048B000863039F449A95AA96BA97CA9C4010E9480
:1048C000330FB401C1010E943315A3018CCFEF92C5
:1048D000FF920F931F93CF93DF93CDB7DEB7A197CE
:1048E0000FB6F894DEBF0FBECDBF8C017B010E94D6
:1048F0007312F7016081718141E0CE0101960E943F
:104900006423CE0101960E9408026FED72E0C80197
:104910000E946C1CE0918511F0918611309721F076
:1049200081E09581911101C080E019A2805D88A38A
:10493000BE01605E7F4F84E89FE00E94A6196DED86
:1049400072E084E89FE00E94A619E0918511F09141
:104950008611309751F18581882339F18CE691E1F8
:104960000E948C15892B79F08CE691E10E94061645
:1049700089831A8241E050E0BE016F5F7F4FC8011A
:104980000E943B1BEBCF8CE691E10E94011BC8010A
:10499000A1960FB6F894DEBF0FBECDBFDF91CF91C9
:1049A0001F910F91FF90EF90089561E173E0CE01A8
:1049B00001960E946C1CB701CE0101960E949C1BBF
:1049C000BC0184E89FE00E94DC19CE0101960E94A0
:1049D000F91ADDCF4F925F926F927F928F929F92E2
:1049E000AF92BF92CF92DF92EF92FF920F931F93FD
:1049F000CF93DF93CDB7DEB7C254D1090FB6F89489
:104A0000DEBF0FBECDBF5C016A0179018E01055D7D
:104A10001F4FC8010E94DA1BB701CE0101967C012D
:104A20000E94631C63E473E0C7010E94861BB80107
:104A30000E949C1B64E074E00E94861BBC01CE01B6
:104A4000C7960E94631CC7010E94F91AC8010E9400
:104A5000F91ABE01695C7F4FC7010E94631CB70150
:104A6000CE01CD960E946724C7010E94F91A470122
:104A70006FED72E0C4010E946C1C96E0890E911CDF
:104A800008151905A9F76FED72E0C5010E946C1CAD
:104A90006FED72E0CE0185960E94D01B882483942E
:104AA000912C712C612C96E0592EB401CE01CD963B
:104AB0000E946402FC016081C8010E94331C67EB04
:104AC00077E0C8010E94621A482EC8010E94F91AB4
:104AD00081E0411037C0B401CE01CD960E9464023E
:104AE000FC016081C8010E94331C6AEA77E0C801BA
:104AF0000E94771A482EC8010E94F91AB401CE010B
:104B0000CD96442009F477C00E946402FC016081C4
:104B1000CE01C1960E94331CB501C8010E94631CDE
:104B2000BE016F5C7F4FC8010E949C1BBC01C50188
:104B30000E944C1CC8010E94F91ACE01C1960E9425
:104B4000F91A80E09FEF891A990A882309F4ADCFFA
:104B50006FED72E0C8010E946C1CBE016D5E7F4F5C
:104B6000E3E0CE16D10489F00CF06BC0BE01695FA2
:104B70007F4F81E0C816D10441F0BE01635F7F4FD3
:104B800092E0C916D10409F0B701C8010E944C1C7B
:104B9000C8010E94051AB801C5010E94AE1AC801D9
:104BA0000E94F91A06501109C8010E94F91AE0166C
:104BB000F106C1F7CE01CD960E94F91ACE01C79633
:104BC0000E94F91AC501CE5BDF4F0FB6F894DEBF25
:104BD0000FBECDBFDF91CF911F910F91FF90EF904E
:104BE000DF90CF90BF90AF909F908F907F906F900D
:104BF0005F904F9008950E946402FC016081C8019B
:104C00000E94331C6AEA77E0C8010E94621A482EAB
:104C1000C8010E94F91A442009F493CF569CC001A0
:104C2000579C900D1124B5018E0D9F1D0E944C1CA8
:104C30006FED72E0C5010E94D01BFFEF6F1A7F0A73
:104C400080CFE5E0CE16D104B1F0BE01675E7F4FA4
:104C5000F5E0CF16D1040CF498CF86E0C816D10445
:104C600009F092CF86E08C9DB0018D9D700D1124CE
:104C70006E0D7F1D8ACFBE01615E7F4FC8010E940D
:104C80004C1CF0CFEF92FF920F931F93CF93DF93C3
:104C9000CDB7DEB76B970FB6F894DEBF0FBECDBFB2
:104CA0007C018B010E947312F7016081718147E1E1
:104CB000CE0101960E946423CE0101960E94080253
:104CC000E0918511F09186113097E9F08581882374
:104CD000D1F0B8018CE691E10E94DC198CE691E1FB
:104CE0000E94011B89E590E10E9466126B960FB647
:104CF000F894DEBF0FBECDBFDF91CF911F910F9112
:104D0000FF90EF90089568E173E084E89FE00E94CF
:104D1000C819E8CFCF92DF92EF92FF920F931F93C3
:104D2000CF93DF93CDB7DEB7E6970FB6F894DEBF2B
:104D30000FBECDBF80919B0A90919C0AFC01E85860
:104D4000F44F10818759954FFC0110836BE273E09B
:104D5000CE01C1960E946C1C133209F090C1BE01B5
:104D60006F5C7F4FCE0101960E94631CBE016F5F96
:104D70007F4FCE0149960E946724CE0101960E9482
:104D8000F91ACE0149960E94FA198B010F5F1F4F45
:104D900069E67AE0CE0101960E946C1CBE016F5F4D
:104DA0007F4FCE014F960E94811CCE0101960E943A
:104DB000F91AB801CE0107960E94DA1B6DE373E081
:104DC000CE0101960E946C1CBE01695F7F4FCE012F
:104DD00001960E949C1B64E074E00E94861BBC014B
:104DE000CE0185960E94631CCE0101960E94F91A9D
:104DF000CE0107960E94F91ABE01615E7F4FCE0177
:104E000007960E94631C6DE373E0CE0101960E9439
:104E10006C1CBE01695F7F4FCE0101960E949C1BF6
:104E200064E074E00E94861BBC01CE018B960E9458
:104E3000631CCE0101960E94F91ACE0107960E94CA
:104E4000F91ABE01655D7F4FCE0101960E94631C79
:104E5000CE0101960E947A22F82ECE0101960E9480
:104E6000F91ABE01FF2009F41DC1655D7F4FCE0117
:104E700001960E94631CBE016F5F7F4FCE010D96AD
:104E80000E946724CE0101960E94F91A29893A8965
:104E90002150310950E040E0BE01635F7F4FCE01F9
:104EA00001960E94B41DCE0101960E94FA196B0171
:104EB000CE0101960E94F91AB601CE0107960E9412
:104EC000DA1B6DE373E0CE0101960E946C1CBE01FB
:104ED000695F7F4FCE0101960E949C1B64E074E0E5
:104EE0000E94861BBC01CE0143960E94631CCE012A
:104EF00001960E94F91ACE0107960E94F91ABE0186
:104F00006D5E7F4FCE0101960E94631CCE0101961B
:104F10000E948E22CE0101960E94F91A69E67AE07B
:104F2000CE0107960E946C1CBE016D5E7F4FCE01C4
:104F300001960E94631CBE01695F7F4FCE010196FE
:104F40000E944226CE0101960E94F91ACE010796D0
:104F50000E94F91ACE0143960E94F91ACE010D96CD
:104F60000E94F91AE9E6FAE011928AE0EB39F807B3
:104F7000D9F71092680A10929C0A10929B0A80E25C
:104F80008093780B8091660A9091670A01969093BE
:104F9000670A8093660A65E473E0CE0101960E9479
:104FA0006C1C61E070E0CE0101960E943416CE01C7
:104FB00001960E94F91A62E573E0CE0101960E9403
:104FC0006C1CBE01615E7F4FCE0101960E949C1B4E
:104FD000BC01CE0107960E94631C62E070E0CE0126
:104FE00007960E943416CE0107960E94F91ACE0148
:104FF00001960E94F91A83E090E00E94F0196091F6
:10500000660A7091670ACE0107960E94DA1B6BE56B
:1050100073E0CE0101960E946C1CBE01695F7F4F58
:10502000CE0101960E949C1B60EF72E00E94861BDD
:10503000BC01CE010D960E94631C63E070E0CE01BE
:105040000D960E943416CE010D960E94F91ACE01DB
:1050500001960E94F91ACE0107960E94F91ACE0114
:105060008B960E94F91ACE0185960E94F91ACE01FC
:105070004F960E94F91ACE0149960E94F91ACE0164
:10508000C1960E94F91AE6960FB6F894DEBF0FBEDD
:10509000CDBFDF91CF911F910F91FF90EF90DF90E7
:1050A000CF9008956F5C7F4FCE0101960E94631CE4
:1050B000CE0101960E948E22CE0101960E94F91A1D
:1050C000B801CE0107960E94DA1BBE016F5C7F4FCC
:1050D000CE0101960E94631CBE01695F7F4FCE0125
:1050E00001960E944226CE0101960E94F91ACE0135
:1050F00007960E94F91AB801CE0107960E94DA1BA2
:10510000BE01655D7F4FCE0101960E94631CBE010A
:10511000695F7F4FCE0101960E944226CE01019623
:105120000E94F91ACE0107960E94F91A69E67AE000
:10513000CE0107960E946C1CBE016B5D7F4FCE01B5
:1051400001960E94631CBE01695F7F4FCE010196EC
:105150000E944226CE0101960E94F91ACE010796BE
:10516000FFCE3F924F925F926F927F928F929F926B
:10517000AF92BF92CF92DF92EF92FF920F931F9365
:10518000CF93DF93CDB7DEB7CD59D1090FB6F894E1
:10519000DEBF0FBECDBF7C010E947312D7016D919F
:1051A0007C9141E0CE018A589F4F0E94642388EE93
:1051B000482E83E0582E612C712C93ECC92E92E07E
:1051C000D92E25ED822E22E0922E3EE2332E4BE5A3
:1051D000A42EB12CAC0EBD1EBCE0AB0EB11CC15751
:1051E000DF4F08811981CF58D040F8018581823086
:1051F00008F4BAC082859385A485B5858F719927F7
:10520000AA27BB27892B8A2B8B2B09F0ADC040E244
:1052100050E0BE016F5F7F4FC8010E94C71080320F
:1052200009F0A2C08981882309F49EC0853E79F3E4
:105230008E3269F38C8583FDEACF22961FAE1EAEB7
:1052400022979FAE8EAE24961FAE2497AE014F5F7D
:105250005F4FE0E080E0DA019D91AD019032A1F076
:10526000883049F421E930E02C0F3D1F2E0F311D0D
:10527000D9013C92EF5F21E930E02C0F3D1F2E0F4A
:10528000311DD9019C93EF5F8F5F8B3021F781E94E
:1052900090E08C0F9D1F8E0F911DFC011082C15755
:1052A000DF4F68817981CF58D04021E0AE014F5661
:1052B0005F4FCE01CE960E942720882309F454C068
:1052C000BE01625C7F4FCE0181960E943315AE0114
:1052D0004F565F4FBE016F5D7F4FCE01855A9F4F86
:1052E0000E942F23E696EEADFFADE697309709F4C6
:1052F00051C08581882309F44DC0CE01855A9F4F46
:105300000E94011BB501CE01CE960E946C1CB70114
:10531000CE0181960E94631CBE01625C7F4FCE016C
:1053200081960E949C1BBC01CE0101960E94631CC9
:10533000CE0181960E94F91ACE01CE960E94F91AEA
:10534000BE016F5F7F4FCE0181960E94631CCE012C
:1053500081960E948E22CE0181960E94F91ACE017A
:1053600001960E94F91A3BCF6F961FAE1EAE6F9743
:10537000A3964CAE5DAE6EAE7FAEA3976D96DFAEDC
:10538000CEAE6D97E6961FAE1EAEE697A8961FAE00
:10539000A897A8CFC356DF4F0FB6F894DEBF0FBE55
:1053A000CDBFDF91CF911F910F91FF90EF90DF90D4
:1053B000CF90BF90AF909F908F907F906F905F90B5
:1053C0004F903F9008958F929F92AF92BF92CF924D
:1053D000DF92EF92FF920F931F93CF93DF9300D052
:1053E00000D0CDB7DEB78C01C62E4A016FED72E05A
:1053F0000E946C1CF12CE12C0C2C000CDD085701D8
:10540000AC0CBD1CC5010E94E8638F3F81F1C50152
:105410000E94E863B82EB801CE0101960E94631C79
:105420006B2DCE0101960E94671BBC01C8010E9432
:105430004C1CCE0101960E94F91A8FEFE81AF80A67
:105440008E149F04E1F6C80126960FB6F894DEBFCD
:105450000FBECDBFDF91CF911F910F91FF90EF90C5
:10546000DF90CF90BF90AF909F908F90089580E392
:10547000B82ED1CF3F924F925F926F927F928F92D0
:105480009F92AF92BF92CF92DF92EF92FF920F93D3
:105490001F93CF93DF93CDB7DEB7CE54D1090FB6AC
:1054A000F894DEBF0FBECDBF6C014A0128E030E0AA
:1054B00050E040E0CE01C7960E94B41D41E050E0AC
:1054C00061E0CE01CD960E94E3296EEC73E0CE013F
:1054D0008D5B9F4F0E946C1C67E874E0CE01CD96F7
:1054E0000E94771A882339F064E773E0CE018D5B60
:1054F0009F4F0E94D01BBE016D5B7F4FCE01019676
:105500007C010E94631CBE01695C7F4FC7010E9441
:105510009C1B64E074E00E94861BBC01CE01875B8B
:105520009F4F0E94631CC7010E94F91A6FED72E041
:10553000C6010E946C1CBE01675B7F4FC7010E94C1
:10554000631CC7010E947A22582EC7010E94F91AD3
:10555000552009F4A3C0BE01675B7F4FC7010E94BD
:10556000631CB701CE01C1960E946724C7010E9447
:10557000F91A57018E010B5D1F4F6FED72E0C501E7
:105580000E946C1C96E0A90EB11C0A151B05A9F718
:10559000AA24A394B12C712C612C96E0492EB5015C
:1055A000CE01C1960E946402FC016081C8010E9484
:1055B000331C67EB77E0C8010E94621A382EC801DD
:1055C0000E94F91A852D311037C0B501CE01C19660
:1055D0000E946402FC016081C8010E94331C6AEAD7
:1055E00077E0C8010E94771A382EC8010E94F91A84
:1055F000B501CE01C196332009F47CC00E9464023B
:10560000FC016081CE018B960E94331CB601C8015B
:105610000E94631CBE01655D7F4FC8010E949C1BF8
:10562000BC01C6010E944C1CC8010E94F91ACE019F
:105630008B960E94F91A80E09FEFA91AB90A882375
:1056400009F4ADCF6FED72E0C8010E946C1CE2E07E
:105650008E16910409F474C0F3E08F16910409F4D6
:1056600076C0BE01695F7F4F8A94892809F46BC0B8
:10567000C8010E94051AB801C6010E94AE1AC801ED
:105680000E94F91A06501109C8010E94F91AE01681
:10569000F106C1F7CE01C1960E94F91ACE01875BCF
:1056A0009F4F0E94F91ACE018D5B9F4F0E94F91AFD
:1056B000CE01CD960E94F91ACE01C7960E94F91A22
:1056C000C601C25BDF4F0FB6F894DEBF0FBECDBF81
:1056D000DF91CF911F910F91FF90EF90DF90CF90CE
:1056E000BF90AF909F908F907F906F905F904F9002
:1056F0003F9008950E946402FC016081C8010E94ED
:10570000331C6AEA77E0C8010E94621A382EC80189
:105710000E94F91A332009F48ECF469CC001479CA1
:10572000900D1124B6018E0D9F1D0E944C1C6FED33
:1057300072E0C6010E94D01BFFEF6F1A7F0A7BCF79
:10574000BE01635F7F4FC8010E944C1C91CFBE0118
:105750006D5E7F4FF8CFCF93DF93CDB7DEB7EC9779
:105760000FB6F894DEBF0FBECDBFBC01CE010196CF
:105770000E94631CBE016F5F7F4FCE01C7960E94DF
:105780006724CE0101960E94F91A6FED72E0CE01F6
:10579000C7960E94771A882309F4F3C0BE01695C9A
:1057A0007F4F84E591E10E944C1CBE01695C7F4FF4
:1057B000CE01C1960E94631C60916A0B70916B0BC5
:1057C000CE0101960E94DA1B60915502709156023B
:1057D000CE0107960E94DA1B66ED73E0CE010D96AE
:1057E0000E946C1CBE01695F7F4FCE010D960E9426
:1057F0009C1B63E473E00E94861BBE016F5F7F4FBA
:105800000E949C1B60EE73E00E94861BBC01CE01CF
:105810008B960E94631CCE010D960E94F91ACE0150
:1058200007960E94F91ACE0101960E94F91ABE014C
:105830006F5C7F4FCE0101960E94631C41E050E0F7
:10584000BE016F5F7F4FCE0185960E943A2ACE013E
:1058500001960E94F91ABE016F5C7F4FCE01079638
:105860000E94631C43E050E0BE01695F7F4FCE01A0
:1058700001960E943A2ABE016F5C7F4FCE01499685
:105880000E94631C42E050E0BE01675E7F4FCE0184
:1058900043960E943A2ABE016D5E7F4FCE010D965F
:1058A0000E94631C60EF72E0CE010D960E94861B81
:1058B000BE016F5F7F4F0E949C1BBC01CE014F96C3
:1058C0000E94631CCE010D960E94F91ACE014396E8
:1058D0000E94F91ACE0149960E94F91ACE0101964A
:1058E0000E94F91ACE0107960E94F91ABE01655D61
:1058F0007F4FCE0101960E94631C70E060E0CE01F4
:1059000001960E943416CE0101960E94F91A81E098
:1059100090E00E94F019BE016B5D7F4FCE010196B1
:105920000E94631C61E070E0CE0101960E94341673
:10593000CE0101960E94F91A82E090E00E94F019CF
:10594000BE01615E7F4FCE0101960E94631C62E042
:1059500070E0CE0101960E943416CE0101960E949D
:10596000F91ACE014F960E94F91ACE0185960E942F
:10597000F91ACE018B960E94F91ACE01C1960E94A7
:10598000F91ACE01C7960E94F91AEC960FB6F89450
:10599000DEBF0FBECDBFDF91CF9108958F929F9252
:1059A000AF92BF92DF92EF92FF920F931F93CF932C
:1059B000DF93CDB7DEB762970FB6F894DEBF0FBEA8
:1059C000CDBF41E050E064E1CE0101960E94E329A1
:1059D000CE0101960E94FA197B01CE0101960E9428
:1059E000F91A1E141F040CF07BC08CE3882E81E191
:1059F000982E98E4A92E91E1B92E25E1D22E10E03F
:105A000000E041E050E06D2DCE0107960E94E329B1
:105A100061E06D0D4BE050E0CE0101960E94E3295C
:105A2000BE016F5F7F4FCE010D960E94631C62EE38
:105A300073E0CE010D960E94861BBE01695F7F4F09
:105A40000E949C1B60EE73E00E94861BBC01C40197
:105A50000E944C1CCE010D960E94F91ABE01695F8E
:105A60007F4FCE010D960E94631CBE016F5F7F4F7A
:105A7000CE010D960E949C1BBC01C5010E944C1CCE
:105A8000CE010D960E94F91A1093630A0093620AE0
:105A9000CE0101960E94F91ACE0107960E94F91ACA
:105AA0000F5F1F4F8CE0D80E86E0880E911C86E0B9
:105AB000A80EB11C0E151F050CF4A3CF62960FB6ED
:105AC000F894DEBF0FBECDBFDF91CF911F910F9134
:105AD000FF90EF90DF90BF90AF909F908F900895D0
