:1000000011C1000040C100003EC100003CC1000021
:100010003AC1000038C1000036C1000034C1000000
:1000200032C100000C949F560C949F560C949F561E
:100030002AC1000028C1000026C1000024C1000020
:1000400022C1000020C100001EC100001CC1000030
:100050001AC1000018C1000016C100000C9405551B
:1000600012C100000C9475560C944B560CC1000044
:100070000AC1000008C1000006C1000004C1000060
:1000800002C1000000C10000FEC00000FCC0000072
:100090000C9421560C94F755F6C000000C94A95608
:1000A000F2C00000F0C00000EEC00000ECC0000094
:1000B000EAC00000E8C00000E6C00000E4C00000A4
:1000C000E2C00000E0C00000DEC000000C94CD558E
:1000D0000C94A355D8C000000C9479550C944F553E
:1000E000D2C000006364696E6F70737578585B00EE
:1000F0007C3C3E5E2B3D3F2F5B5D3B2C2A225C000F
:1001000000002200250028002B002E0031003400C2
:1001100002010000050108010B010000200023007E
:10012000260029002C002F003200000100000301EE
:100130000601090100000A0B02090C0D0E08070355
:1001400004010000000000000000000000000000AA
:10015000000000000000000000000000000000009F
:10016000121110000000000000000000000000005C
:10017000000000000000000000000000210024003A
:1001800027002A002D003000330001010000040187
:1001900007010A0101021020200808102040102049
:1001A000408002010201080402010102040810203B
:1001B0004080804020100804020180040201804039
:1001C00020100804020108040201010204081020A2
:1001D0004080010204081020408005050505070540
:1001E00008080808020202020A0A080804040404B3
:1001F00001010101010101010303030303030303DF
:10020000040707070C0C0C0C0C0C0C0C020202026D
:1002100006060606060606060B0B0B0B0B0B0B0B56
:10022000CD57395D11241FBECFEFD1E2DEBFCDBF68
:1002300000E00CBF20E1A8E6B9E001C01D92AB3F91
:10024000B207E1F719E0A0E0B2E0E6EEFDEC00E075
:100250000BBF02C007900D92A836B107D9F711E085
:10026000C1E1D1E000E006C021970109802FFE0125
:100270000E947B5EC031D10780E00807A9F70E9489
:100280001A5A0C94E166BCCEFC01A089B18982E0C7
:100290008C93A485B5851C92A685B7858FEC8C932D
:1002A000108EA489B58986E08C93A289B3898C913C
:1002B00080618C93A289B3898C9188608C93A28988
:1002C000B3898C9180688C930288F389E02D8081BA
:1002D0008F7D80830895CF93DF93FC01828193818A
:1002E0009093C3108093C21084819581A681B781B9
:1002F0008093C4109093C510A093C610B093C710FC
:1003000080859185A285B3858093C8109093C9108C
:10031000A093CA10B093CB10DF011C96CF01499671
:10032000CCECD0E12D912993A817B907D9F7818D8D
:10033000928D9093DA108093D91080EC90E1DF9148
:10034000CF9108952091CB0A81E0213208F044C07A
:100350008091A70A8111FCCF8091CA0A92E0909304
:10036000A70A91E09093A60A9FEF9093A50A109296
:10037000A40A2093A30AAAEABAE0E3E8FAE090E02C
:10038000291331C01092820A9091820A880F892B1A
:100390008093820A8091810A813049F51092810A06
:1003A0008091820A8093BB008091BC0083FDF8CFCE
:1003B00085EC8093BC008091A70A8230E1F38091A4
:1003C000A50A8F3FB1F08091A50A8032A1F08091FB
:1003D000A50A803391F084E01092A90A1092CB0A0A
:1003E0001092A80A08953D9131939F5FC9CF85EE81
:1003F000E0CF80E0F1CF82E0EFCF83E0EDCF089552
:10040000089596E0899FD0011124AF50B04F909687
:100410007C936E935F9791E091969C939197E09176
:100420005E10F0915F1090915D10992339F0309734
:1004300051F0811108C080910D101994309719F076
:100440005C968C91FACF08958150823108F05AC0A1
:10045000E82FF0E08827E05DFD4F8F4F0C947B5E26
:1004600050025402420248024C02820257025D02CC
:10047000610267026B026F027502790282027D02DD
:1004800083028702809180008F7780938000089597
:10049000809180008F7DF9CF80918000877FF5CF9C
:1004A00084B58F7784BD089584B58F7DFBCF80910F
:1004B000B0008F778093B00008958091B0008F7D59
:1004C000F9CF809190008F7780939000089580916C
:1004D00090008F7DF9CF80919000877FF5CF80913C
:1004E000A0008F778093A00008958091A0008F7D59
:1004F000F9CF8091A000877FF5CF809120018F7781
:10050000809320010895809120018F7DF9CF809103
:100510002001877FF5CFCF93DF93282F30E0F901BB
:10052000EC5CFE4F8491F901EC56FE4FD491F90139
:10053000E652FE4FC491CC2399F0811185DFEC2F58
:10054000F0E0EE0FFF1FE65EFE4FA591B491EC9137
:10055000ED2381E090E009F480E0DF91CF910895F0
:1005600080E090E0FACF1F93CF93DF93282F30E005
:10057000F901EC5CFE4F8491F901EC56FE4FD491E9
:10058000F901E652FE4FC491CC23A1F0162F811140
:100590005BDFEC2FF0E0EE0FFF1FE050FF4FA59167
:1005A000B4918FB7F894EC91111108C0D095DE2367
:1005B000DC938FBFDF91CF911F910895DE2BF8CF91
:1005C0001092800A10927F0A1092A90A1092CB0A08
:1005D0001092A70A81E08093A60A1092810A61E036
:1005E00084E1C1DF61E085E1BEDFE9EBF0E080811D
:1005F0008E7F808380818D7F808388E48093B800A4
:1006000085E48093BC008FEF91E090937E0A809305
:100610007D0A80E092E090937C0A80937B0A0895A3
:10062000CF93DF9390E0FC01EC56FE4F249186526D
:100630009E4FFC0184918823C9F090E0880F991F98
:10064000FC01E658FE4FA591B491FC01E050FF4F2C
:10065000C591D49161110DC09FB7F8948C912095EC
:1006600082238C938881282328839FBFDF91CF9199
:100670000895623051F49FB7F8943C91822F809591
:1006800083238C93E8812E2BEFCF8FB7F894EC91D6
:100690002E2B2C938FBFEACF60E08091EE10C0DF4D
:1006A00061E08091ED105FDF8091EE1034DF019703
:1006B000D9F360E08091ED1056CFCF93DF93CDEE6C
:1006C000D0E161E08981ACDF60E089814CDF61E0ED
:1006D000888149DF61E0898146DF60E08981DF91BF
:1006E000CF919ECF3FB7F8948091770A9091780A86
:1006F000A091790AB0917A0A26B5A89B05C02F3F30
:1007000019F00196A11DB11D3FBFBA2FA92F982F37
:100710008827BC01CD01620F711D811D911D42E032
:10072000660F771F881F991F4A95D1F708958F92FA
:100730009F92AF92BF92CF92DF92EF92FF926B01A6
:100740007C01D0DF4B015C01C114D104E104F10450
:10075000B1F0C8DF681979098A099B09683E7340BE
:100760008105910588F321E0C21AD108E108F1085A
:1007700088EE880E83E0981EA11CB11CE5CFFF9087
:10078000EF90DF90CF90BF90AF909F908F900895A3
:100790002FB7F8946091730A7091740A8091750A6A
:1007A0009091760A2FBF08950F931F93CF93DF93F5
:1007B000C82FD62F86E0C89FF0011124EF50F04FCC
:1007C00011A2878D90A181309105E1F058F082301F
:1007D0009105D1F1039709F43CC0DF91CF911F91AE
:1007E0000F9108956623C9F361E070E08C2F09DE54
:1007F000CFDF6093491070934A1080934B10909311
:100800004C10EBCFC5DF0091491010914A10209198
:100810004B1030914C10AB01BC01401B510B620BD3
:10082000730B80915B1090915C10B0E0A0E0841796
:100830009507A607B70740F462E070E08C2FDF91C0
:10084000CF911F910F91DDCD63E070E0D111C5CF45
:10085000F5CF70E060E0F2CFFC01248135816217B2
:10086000730720F480819181009729F41092710A16
:1008700081E79AE00895860F971F08950895DB0198
:1008800014964D915C9115976D917C91DC01ED91E1
:10089000FC910280F381E02D1994AF92BF92CF9228
:1008A000DF92EF92FF920F931F93CF93DF936C0130
:1008B0007B018B01040F151FEB015E01AE18BF0811
:1008C000C017D10759F06991D601ED91FC910190C3
:1008D000F081E02DC6011995892B79F7C501DF91CB
:1008E000CF911F910F91FF90EF90DF90CF90BF902D
:1008F000AF900895FC01A089B1898C91A689B78930
:1009000082FD0FC09C91818D8F5F8F73228D821726
:1009100049F0A18DAE0FBF2FB11D5D969C93818FC5
:1009200008958C910895FC01538D448D252F30E05E
:10093000842F90E0821B930B541710F0CF960895EC
:1009400001970895FC01918D828D981761F0A28D19
:10095000AE0FBF2FB11D5D968C91928D9F5F9F73DF
:10096000928F90E008958FEF9FEF0895FC01918D95
:10097000828D981731F0828DE80FF11D858D90E002
:1009800008958FEF9FEF0895FC01918D228D892F9F
:1009900090E0805C9F4F821B91098F739927089587
:1009A0008DE09DE0F1DF21E0892B09F420E0822F2A
:1009B00008958AEA9DE0E8DF21E0892B09F420E030
:1009C000822F089587E49EE0DFDF21E0892B09F480
:1009D00020E0822F089584EE9EE0D6DF21E0892B6F
:1009E00009F420E0822F0895FC01A48DA80FB92FEF
:1009F000B11DA35ABF4F2C91848D90E001968F7347
:100A00009927848FA689B7892C93A089B1898C9165
:100A1000837080648C93938D848D981306C00288B4
:100A2000F389E02D80818F7D80830895EF92FF927E
:100A30000F931F93CF93DF93EC0181E0888F9B8D01
:100A40008C8D98131AC0E889F989808185FF15C0BB
:100A50009FB7F894EE89FF896083E889F9898081DE
:100A60008370806480839FBF81E090E0DF91CF91AD
:100A70001F910F91FF90EF900895F62E0B8D10E0CF
:100A80000F5F1F4F0F731127E02E8C8D8E110BC03F
:100A90000FB607FCFACFE889F989808185FFF5CF89
:100AA000CE01A2DFF2CFEB8DEC0FFD2FF11DE35A4B
:100AB000FF4FF0829FB7F8940B8FEA89FB89808102
:100AC0008062D0CFCF93DF93EC01888D8823B1F083
:100AD000AA89BB89E889F9898C9185FD03C0808149
:100AE00086FD0CC00FB607FCF7CF8C9185FFF2CFC7
:100AF000808185FFEDCFCE0177DFEACFDF91CF9107
:100B0000089580E090E0892B21F065DF81110E943B
:100B1000000080E090E0892B21F054DF81110E94D9
:100B2000000080E090E0892B21F043DF81110E94DA
:100B3000000080E090E0892B21F032DF81110C94DD
:100B400000000895862FE7CC862F642F0CCD862FCA
:100B5000642F66CD21E001C0220F6A95EAF7DC011F
:100B60001C962C931C971A965C934E931997ED91B3
:100B7000FC910484F585E02D60E01994DC01ED9191
:100B8000FC910684F785E02D41E0199581E090E025
:100B90000895DC01ED91FC910684F785E02D40E09D
:100BA00019940F931F93CF93DF9300D000D01F921F
:100BB0001F92CDB7DEB70091750210917602209199
:100BC0007702309178020D831E832F83388700913E
:100BD000790210917A0220917B0230917C02098384
:100BE0001A832B833C839091DF0F691710F06FEF0E
:100BF000690F262F30E04091E00F2C0F3D1FF901C7
:100C0000403191F4943081F46181680F606888ED1F
:100C10009FE028960FB6F894DEBF0FBECDBFDF91E0
:100C2000CF911F910F91B5CF6581EFCFEF92FF92DA
:100C30000F931F93CF93DF938B0198E0899FB001AF
:100C40001124606488ED9FE0A4DF83E790E00197C2
:100C5000F1F7E801085F1F4F8BE9E82EF12C69914D
:100C600088ED9FE08BDFC7010197F1F7C017D1072F
:100C7000B1F7DF91CF911F910F91FF90EF90089501
:100C8000DC01ED91FC910484F585E02D6FEF199462
:100C900061E07FDF8BE39FE10197F1F708950F9308
:100CA0001F93CF93DF93EC01423018F08C81886062
:100CB0008C834F836887222329F0413019F48C817B
:100CC00084608C8364E670E080E090E030DD6C81CD
:100CD00064FD4DC0E881F9810684F785E02D42E08E
:100CE00063E0CE0119958BE496E40197F1F7E88172
:100CF000F9810684F785E02D42E063E0CE01199585
:100D000003E512E0C8010197F1F7E881F981068453
:100D1000F785E02D42E063E0CE011995C801019707
:100D2000F1F7E881F9810684F785E02D42E062E081
:100D3000CE011995C8010197F1F76C816062CE016F
:100D400028DF8BEE90E00197F1F784E08D836CE073
:100D5000CE011FDFCE019CDF82E08E8366E0CE01F4
:100D600018DFCE01DF91CF911F910F9189CF606283
:100D7000CE010FDF8BE496E40197F1F76C8160629E
:100D8000CE0107DF03E512E0C8010197F1F76C819E
:100D90006062CE01FEDECECF0895089585ED80938A
:100DA000BC008091BC0084FDFCCF1092A70A08957E
:100DB00020914C0A260F3327331F21323105ECF4E2
:100DC0002091A70AFC0190E080E0243069F082E0E5
:100DD0000895A0914C0A2191AC01445D554FA40F98
:100DE000B52FB11D2C930196861798F380914C0A6C
:100DF000680F60934C0A80E0089581E0089508959B
:100E0000E091800A80917F0AE81730F4F0E0E45F17
:100E1000F54F808190E008958FEF9FEF08959091B6
:100E2000800A80917F0A2FEF3FEF981748F4E92F4F
:100E3000F0E0E45FF54F208130E09F5F9093800AFF
:100E4000C901089580917F0A9091800A891B990BAE
:100E50000895CF92DF92EF92FF920F931F93CF935B
:100E6000DF937C01CB018A012091A80A222389F01B
:100E7000EB016B01C40ED51ECC15DD0561F0699147
:100E8000D701ED91FC910190F081E02DC7011995FA
:100E9000F3CF642F8DDFC801DF91CF911F910F91A8
:100EA000FF90EF90DF90CF900895CF93DF931F9244
:100EB000CDB7DEB769832091A80A2223F9F02091EB
:100EC000CB0A203258F021E030E0FC01338322834A
:100ED00090E080E00F90DF91CF9108958091A90A72
:100EE000E82FF0E0E655F54F998190838F5F80936E
:100EF000A90A8093CB0A81E090E0ECCF61E0CE01BB
:100F0000019656DFF8CFFC0123812223E1F0262F42
:100F10006181609562236083828191E09093A80A49
:100F20008093CA0A1092A90A1092CB0A81E89FE026
:100F3000BCDF08DA282F30E081E090E0232B11F0AD
:100F400090E080E0089530E020E0F6CFEF92FF924D
:100F50000F931F93CF938C01FC0184E0C0E0262FF8
:100F600030E060FF02C09589C92BB901759567957E
:100F7000815031968111F3CF413011F4F801448949
:100F8000F8016585C62BC42B7801FEE0EF0EF11C3D
:100F9000F80162896C2BC701B6DFF80162896095A0
:100FA0006C23C701CF911F910F91FF90EF90ABCFB2
:100FB0000F931F93CF93DF93062F0F70423039F4B6
:100FC00040E0602FDF91CF911F910F91BFCF142F81
:100FD000EC0170E084E0759567958A95E1F7CE01A4
:100FE000B5DF412F602FCE01EDCFFC018485882332
:100FF00099F0218532852115310521F4611107C051
:10100000158606C021303105D9F76111F9CF8587E2
:101010006585CF010E9677CF0895EF92FF920F93DB
:101020001F93CF93DF93EC01062FF42EE22E8B85D6
:10103000888BC6DA888911E01093A80A8093CA0ABF
:101040001092A90A1092CB0A7DD9811119C0198B6F
:1010500081E89FE0E4DE8E878989882331F01F864E
:101060001C8260E0CE010E964EDF2E2D4F2D602F9C
:10107000CE01DF91CF911F910F91FF90EF900FCE96
:10108000198AEACF8FB7F8948091060A8FBF089526
:1010900061E0FC01848167DA8091050A8111109278
:1010A000050A08958EBD00000DB407FEFDCF8EB574
:1010B00008958FEFF7CF0F931F93CF93DF93EC013A
:1010C00067DB8B01F6DF8F3F61F062DB601B710B2A
:1010D0006C177D07B8F380E0DF91CF911F910F91DE
:1010E000089581E0F9CF8CBD9DBD0895CF93DF9326
:1010F000EC018091050A811108C081E08093050A06
:1011000080918D0F90918E0FEEDF60E08C81DF91EA
:10111000CF9129CA8F929F92AF92BF92FF920F9365
:101120001F93CF93DF93EC01F62E49015A018E8174
:10113000882379F08F8198859C012F5F3F4F3887F6
:101140002F838230924010F4B4DFF4CFCE01A0DFC1
:101150001E82CE01CBDF8CE291E0ADDF8F2D80646B
:10116000A1DF08E110E0D501C401002E04C0B6954E
:10117000A795979587950A94D2F794DF085011099F
:10118000083F8FEF180779F785E9FF2021F028E065
:1011900087E8F2128FEF86DF10E08BDF8A8787FF08
:1011A00004C01F3F11F01F5FF8CFDF91CF911F9157
:1011B0000F91FF90BF90AF909F908F900895AF9246
:1011C000BF92CF92DF92EF92FF920F931F93CF9334
:1011D000DF93EC016901C801820F931F81309240B7
:1011E00048F58E81882379F088819981AA81BB8115
:1011F00084179507A607B70731F48F819885C8161D
:10120000D90608F03CC0488359836A837B838B8569
:10121000833039F089E0440F551F661F771F8A9588
:10122000D1F79A01AB0161E1CE0174DF882381F02F
:1012300083E08D83CE012CDF80E0DF91CF911F9181
:101240000F91FF90EF90DF90CF90BF90AF900895F7
:101250009FDA5B012EDF8A878F3F59F499DA6A198A
:101260007B096D327140B0F38FE08D83CE0110DFCA
:10127000E1CF8E3F81F418861F8281E08E838F81BB
:1012800098858C159D0548F414DF8F81988501960B
:1012900098878F83F4CF8DE0E8CF6701E00EF11ED1
:1012A00008DFF60181936F01EE15FF05C9F78F8105
:1012B0009885080F191F18870F838985882319F0CF
:1012C0000115124090F08E81882379F08F819885E6
:1012D0009C012F5F3F4F38872F838230924010F45C
:1012E000E8DEF4CFCE01D4DE1E8281E0A6CFEF92FD
:1012F000FF920F931F93CF93DF93EC01790182E16B
:10130000411551056105710591F08B85833039F0E8
:1013100089E0440F551F661F771F8A95D1F79A0100
:10132000AB0168E1CE01F6DE882319F084E08D83FD
:1013300028C08EEFB7DE87018EEFF81AF801819191
:101340008F01B0DE0E151F05C9F78FEFABDE8FEFF3
:10135000A9DEAFDE8A878F71853079F488E592E067
:10136000AADE882391F020E030E0A9016DE0CE01F3
:10137000D1DE882361F084E1DACF81E18D83CE0173
:1013800087DECE0185DE80E008C085E1D0CF91DE2A
:101390008111F1CFCE017CDE81E0DF91CF911F91F1
:1013A0000F91FF90EF900895CF93DF938091070AFC
:1013B000882399F1C0910B0BD0910C0B40911B022B
:1013C00050911C0260911D0270911E022DE03BE0C5
:1013D000CE018DDF811104C080E0DF91CF910895AF
:1013E0004091080A5091090A60910A0A70910B0A0B
:1013F000411551056105710571F02DE03BE0CE010D
:1014000076DF882349F31092080A1092090A109295
:101410000A0A10920B0A1092070A81E0DECF8F921F
:101420009F92AF92BF92EF92FF920F931F93CF9331
:101430004B015C01C42F80911B0290911C02A09172
:101440001D02B0911E0288159905AA05BB0539F148
:10145000ABDF81110BC080E0CF911F910F91FF9006
:10146000EF90BF90AF909F908F9008958DE0E82E01
:101470008BE0F82E00E012E030E020E0B501A4019E
:1014800080910B0B90910C0B9ADE882321F38092B4
:101490001B0290921C02A0921D02B0921E0240916B
:1014A000070A4C2B4093070A81E0D6CFCF93DF93F6
:1014B000EC016E857F858889998941E0B0DF8823BA
:1014C00051F08A8920E2829FC0011124835F944FEA
:1014D000DF91CF91089590E080E0FACF8F929F92B4
:1014E000AF92BF92CF92DF92EF92FF92CF932FE80D
:1014F0003FE030930C0B20930B0B882309F46BC057
:1015000040E060E070E0CB018ADF81110BC080E039
:10151000CF91FF90EF90DF90CF90BF90AF909F90D2
:101520008F9008958091CB0C8F7789F78091D70C9D
:101530009091D80CA091D90CB091DA0C8436910519
:10154000A105B10520F3C090D30CD090D40CE0904D
:10155000D50CF090D60CC114D104E104F104B9F219
:1015600040E0C701B6015BDF882389F28091180B48
:101570009091190B8115924051F6A0911D0BAA2351
:1015800031F260911B0B70911C0B6115710509F410
:10159000BECF20911A0B222309F4B9CFA093AD0F2F
:1015A00020939F0F90E080E030E0E1E0F0E0C82F72
:1015B000AF01082E02C0440F551F0A94E2F724170A
:1015C000350769F041E0480F01968930910579F7B8
:1015D0004093A80F9CCFC12CD12C7601C1CF809312
:1015E000A80F2091230B3091240B50E040E02115EF
:1015F000310541F42091310B3091320B4091330B86
:101600005091340B2093A00F3093A10F4093A20F61
:101610005093A30F46015701860E971EA11CB11CC3
:101620008092AE0F9092AF0FA092B00FB092B10F18
:10163000E0911E0BF0911F0BF093B40FE093B30FEA
:10164000B0E00E94435EDC01CB01880D991DAA1D0C
:10165000BB1D8093B50F9093B60FA093B70FB093B7
:10166000B80F25E0EE0FFF1F2A95E1F7E150FE4F7E
:10167000EF2FFF27E6958E0F9F1FA11DB11D8093B1
:10168000A90F9093AA0FA093AB0FB093AC0F8090CB
:10169000200B9090210BB12CA12C8114910441F4CA
:1016A00080902D0B90902E0BA0902F0BB090300BB4
:1016B000C81AD90AEA0AFB0AC80CD91CEA1CFB1C86
:1016C00004C0F694E794D794C794CA95D2F7C09211
:1016D000A40FD092A50FE092A60FF092A70F85EF6E
:1016E000C8168FE0D806E104F10428F48CE080935A
:1016F000B20F81E00DCF80E125EFC2162FEFD206A9
:10170000E104F104A0F38091390B90913A0BA09180
:101710003B0BB0913C0B8093B50F9093B60FA09309
:10172000B70FB093B80F80E2E2CF4F925F926F9203
:101730007F928F929F92AF92BF92CF92DF92EF9261
:10174000FF920F931F93CF93DF93EC01423051052B
:101750006105710590F480E0DF91CF911F910F91A9
:10176000FF90EF90DF90CF90BF90AF909F908F90C1
:101770007F906F905F904F90089589859A85AB8593
:10178000BC850196A11DB11D84179507A607B70753
:1017900010F3CB88DC88ED88FE888F89803109F0D2
:1017A00042C0BB27A72F962F852F480159012A0138
:1017B0003B01C80ED91EEA1EFB1E80911B029091B0
:1017C0001C02A0911D02B0911E02C816D906EA069D
:1017D000FB0699F58F898031B9F5B301A201552730
:1017E00066277727440F551F435F544FFA019182B4
:1017F00080828091070A81608093070A8A898230FB
:1018000080F08D819E81AF81B8858C0D9D1DAE1DB0
:10181000BF1D8093080A9093090AA0930A0AB09307
:101820000B0A81E099CFDB01CA01E7E0B695A795E5
:1018300097958795EA95D1F7B8CF40E0C701B601F3
:10184000EEDD8111C7CF87CFB301A2014F775527B6
:1018500066277727440F551F440F551F435F544F8A
:10186000FA0180829182A282B382C3CF8F929F922B
:10187000AF92BF92CF92DF92EF92FF920F931F939E
:10188000CF93DF93FC0181859285A385B485019672
:10189000A11DB11D84179507A607B70770F480E056
:1018A000DF91CF911F910F91FF90EF90DF90CF903C
:1018B000BF90AF909F908F90089583889488A5885B
:1018C000B6888789803189F5BB27A72F962F852F6A
:1018D000E9016A017B018F01BC01CD01680D791D11
:1018E0008A1D9B1D80901B0290901C02A0901D02DF
:1018F000B0901E0286169706A806B90601F5F801F3
:101900008789803109F5DD24EE24FF24F601EE0FEE
:10191000FF1FE35FF44F80819181B0E0A0E08883F6
:101920009983AA83BB8381E0BBCFDB01CA01C7E0F7
:10193000B695A79597958795CA95D1F7C9CF40E0F9
:101940006EDD8111DCCFABCFE894C7F8DD24EE2447
:10195000FF24F601EE0FFF1FEE0FFF1FE35FF44FB2
:1019600080819181A281B381BF70D9CF4F925F9264
:101970006F927F92AF92BF92CF92DF92EF92FF92DF
:101980000F931F93CF93DF9300D01F92CDB7DEB795
:101990008C0149835A836B837C835901C12CD12CE0
:1019A0007601412C82E0582E612C712C49815A819C
:1019B0006B817C819E012F5F3F4FC80157DF8823D9
:1019C00039F1F8018585A301920104C0220F331F6C
:1019D000441F551F8A95D2F7DA01C901C80ED91ED6
:1019E000EA1EFB1E49815A816B817C818789803187
:1019F00011F188EF9FEFAFEFBFE0481759076A0773
:101A00007B07A0F2F501C082D182E282F38281E0FD
:101A10000F900F900F900F90DF91CF911F910F912A
:101A2000FF90EF90DF90CF90BF90AF907F906F903E
:101A30005F904F90089588EF9FEFA0E0B0E0DDCF7A
:101A4000CF93DF93FC012581222321F080E0DF91F9
:101A5000CF910895EC018091B20F803159F582E069
:101A60008583178A108E118E128E8091B30F9091FC
:101A7000B40FB0E0A0E025E0880F991FAA1FBB1F9C
:101A80002A95D1F7838B948BA58BB68B8BE99FE03E
:101A90009C8F8B8F81E08C831E821F821886198613
:101AA0001A861B861C861D861E861F86188A198A22
:101AB0001A8ACDCF803251F683E085834091B50FED
:101AC0005091B60F6091B70F7091B80F478B508F40
:101AD000618F728F9F012D5E3F4F8BE99FE046DF44
:101AE0008111D4CFB3CF8F929F92AF92BF92CF92FA
:101AF000DF92EF92FF920F931F93CF93DF93EC014E
:101B00008D8181110EC080E0DF91CF911F910F91E7
:101B1000FF90EF90DF90CF90BF90AF909F908F900D
:101B200008950B891C892D893E89041715072607FE
:101B3000370748F34A015B01823031F48A869B867D
:101B4000AC86BD8681E0E0CF81149104A104B1048C
:101B500049F41E821F82188619861A861B861C86E7
:101B60001D86F0CF0A851B852C853D85EB8DFC8D70
:101B7000858590E00996B901A80141505109610994
:101B80007109082E04C076956795579547950A9474
:101B9000D2F775016401E1E0CE1AD108E108F1083D
:101BA00004C0F694E794D794C7948A95D2F7C416E4
:101BB000D506E606F70620F0012B022B032B09F5CC
:101BC0008F89988DA98DBA8D8E839F83A887B987B9
:101BD0008E010A5F1F4FC114D104E104F10409F41E
:101BE000ADCF4E815F816885798598018B8D9C8D05
:101BF0003DDE91E0C91AD108E108F1088111EBCF6F
:101C000082CFC41AD50AE60AF70AE2CF3F924F9272
:101C10005F926F927F928F929F92AF92BF92CF927C
:101C2000DF92EF92FF920F931F93CF93DF93CDB785
:101C3000DEB72C970FB6F894DEBF0FBECDBF5C01A8
:101C4000DC015B968D909C905C9716964D905D9014
:101C50006D907C901997411451046104710409F44A
:101C600067C0BFEF4B1A5B0A6B0A7B0A312CF40189
:101C700081859285A385B4859C01AD012F5F3F4F7F
:101C80004F4F5F4F29873A874B875C87730162010B
:101C90001D821E821F821886F40181859285A3858C
:101CA000B4852D813E814F815885281739074A0711
:101CB0005B0708F054C089859A85AB85BC858C1577
:101CC0009D05AE05BF0550F482E0C82ED12CE12C55
:101CD000F12C92E0492E512C612C712C9E012F5F2A
:101CE0003F4FB701A601C401C1DD8823C1F189813D
:101CF0009A81AB81BC81892B8A2B8B2B09F1260120
:101D000037019FEF491A590A690A790A2D813E81E4
:101D10004F8158852F5F3F4F4F4F5F4F2D833E833D
:101D20004F8358873FEFC31AD30AE30AF30AB4CFAD
:101D3000F40140805180628073803324339497CFC4
:101D4000C414D504E604F70409F70FEF1FEF2FEFD3
:101D50003FE0B701A601C401E8DC811119C080E0B1
:101D60002C960FB6F894DEBF0FBECDBFDF91CF919A
:101D70001F910F91FF90EF90DF90CF90BF90AF90A9
:101D80009F908F907F906F905F904F903F900895BD
:101D9000F5014681578160857185411551056105C1
:101DA000710531F097018601C401BFDC8823B9F2C7
:101DB000D5011696CD92DD92ED92FC9219973320C3
:101DC00051F0D701C6010196A11DB11DF401808318
:101DD0009183A283B383F5018789908DA18DB28D04
:101DE000892B8A2B8B2B39F4C78AD08EE18EF28E09
:101DF00084818068848381E0B3CF2F923F924F9299
:101E00005F926F927F928F929F92AF92BF92CF928A
:101E1000DF92EF92FF920F931F93CF93DF93EC012A
:101E20005B012A018D81811115C08FEF9FEFDF913A
:101E3000CF911F910F91FF90EF90DF90CF90BF90C7
:101E4000AF909F908F907F906F905F904F903F905A
:101E50002F9008958C8180FFE8CF0B891C892D89F4
:101E60003E894A855B856C857D85C201B0E0A0E036
:101E700068017901C41AD50AE60AF70AC816D90614
:101E8000EA06FB0618F42801441A550A42011E010D
:101E900026E0220E311C8114910409F4B0C04A8559
:101EA0005B856C857D856A0181E0D8228B8D9C8D58
:101EB0008A019B01E9E03695279517950795EA95E4
:101EC000D1F7ED81E230D9F5FC01628D738D848DFF
:101ED000958D600F711F821F931F612C22E0722E5F
:101EE0006C187D088614970408F434012C8126FDB3
:101EF00004C06114F2E07F0671F400911B0210919E
:101F00001C0220911D0230911E0206171707280798
:101F1000390709F051C040E082DA882309F485CFFF
:101F2000C601835F944FD5019C01260D371DFC012E
:101F30002E173F0709F45EC041914D93F9CFFC0184
:101F400074807A947022C114D10471F471100CC0A1
:101F5000452B462B472B39F58F89988DA98DBA8D46
:101F60008E839F83A887B987EB8DFC8D6E817F81DF
:101F7000888599856250710981099109258504C078
:101F8000660F771F881F991F2A95D2F70685178538
:101F900020893189600F711F821F931F670D711D8A
:101FA000811D911D9ACF4E815F8168857985910150
:101FB0005DDC8111D9CF39CF750183019601AB0169
:101FC000BC0180910B0B90910C0BF9D8882309F47C
:101FD0002CCFA60CB71C8A859B85AC85BD85860D4C
:101FE000971DA11DB11D8A879B87AC87BD87861869
:101FF000970851CF281B390BA20EB31EECCFC2019C
:1020000016CFCF93DF93EC018D81882319F18C815A
:1020100087FF1DC0CE014ADAFC01892BD9F08D81E2
:10202000823040F48B899C89AD89BE89848F958FDD
:10203000A68FB78F8F89988D938F828F8F89988D78
:10204000A98DBA8DB58BA48B8C818F778C83DF9112
:10205000CF91AAC980E0DF91CF910895CF93DF930C
:10206000EC01CFDF882311F01D8281E0DF91CF9159
:102070000895CF92DF92EF92FF921F93CF93DF9359
:102080008091BE0F882319F089EB9FE0E7DF109263
:102090009A0F1092980F1092950F1092940F85E35B
:1020A0008093930F0E94C803EB0161E08091930F2E
:1020B0000E94100361E08091930F0E94B3021FB74A
:1020C000F89480910A0B811127C0EFE0F2E084912F
:1020D000E9ECF1E09491E82FF0E0EE0FFF1FE658F5
:1020E000FE4FA591B491EC91E92321F461E085E3E1
:1020F0000E94B30261E085E30E9410038CB5806109
:102100008CBD8CB580648CBD61E084E30E941003BB
:1021100061E083E30E94100380910A0B8F5F80933C
:102120000A0B1FBF82E580938D0F10928E0F809156
:102130008D0F90918E0F0E9473081AE08FEF0E940E
:1021400052081150D9F78FE89FE00E94760820E0EE
:1021500030E0A90160E08FE89FE00E948A08182F14
:102160008093990F813081F00E94C8036C1B7D0B16
:10217000613D774060F381E08093940F8FE89FE0AA
:102180000E94480890E076C02AEA31E040E050E042
:1021900068E08FE89FE00E948A0882FF2AC01093BF
:1021A0009A0F80919A0FC12CD12C7601823029F49C
:1021B000C12CD12CE12C80E4F82E20E030E0A901E4
:1021C00067E38FE89FE00E948A08A701960169E211
:1021D0008FE89FE00E948A088093990F8823C1F0BE
:1021E0000E94C8036C1B7D0B613D774030F388E093
:1021F000C3CF14E00E9459088093990F1150D1F772
:102200008A3A11F082E0B8CF82E080939A0FC9CF6A
:1022100080919A0F8230D1F420E030E0A9016AE386
:102220008FE89FE00E948A08882311F086E0A4CFFF
:102230000E945908807C803C19F483E080939A0FB7
:102240000E9459080E9459080E9459088FE89FE08F
:102250000E94480880E580938D0F10928E0F81E0D8
:102260003DD9882381F089EB9FE0EADB91E0882368
:1022700009F488CF892FDF91CF911F91FF90EF90C4
:10228000DF90CF90089580E029D9882309F47ACF90
:10229000EACF2F923F924F925F926F927F928F92EE
:1022A0009F92AF92BF92CF92DF92EF92FF920F93E5
:1022B0001F93CF93DF9300D01F92CDB7DEB78C0171
:1022C0005B011A01DC0115968C911597813009F09C
:1022D000C6C014968C9181FFC2C082FDADC0610161
:1022E000D8011A964D915D916D917C911D97C11405
:1022F000D10409F426C15B968D919C915C97FC01F9
:1023000074802FEF270D2A013B0139E07694679402
:10231000579447943A95D1F7722E74207A01F1E0E0
:10232000FF2271101FC0E114F104E1F416964D91E3
:102330005D916D917C91199741155105610571056C
:1023400009F096C057968D919D910D90BC91A02D4E
:102350000097A105B10509F0ACC0C80157DC88237E
:1023600009F47DC080E092E08E199F0946018C152A
:102370009D0508F44C01D8015B964D915C915C97EA
:1023800016968D919D910D90BC91A02D0297A1095B
:10239000B109FA01258504C0880F991FAA1FBB1F28
:1023A0002A95D2F74685578560897189840F951FD4
:1023B000A61FB71F9C01AD01270D311D411D511DE9
:1023C00029013A01811432E0930609F078C0809126
:1023D0001B0290911C02A0911D02B0911E02841557
:1023E0009505A605B70559F48FEF9FEFDC018093A3
:1023F0001B0290931C02A0931D02B0931E02950134
:10240000B301A20180910B0B90910C0B0E947709F4
:10241000882329F19EEFB91AC818D908F8018285D6
:102420009385A485B585880D991DA11DB11D828751
:102430009387A487B58754CFF80143895489658968
:10244000768982859385A485B585481759076A07DB
:102450007B0709F444CFC80146DB811140CF81E0FE
:1024600090E0D80113969C938E93129780E006C05B
:102470009E012F5F3F4FFAD9811102C090E077C0D3
:1024800089819A81AB81BC81F801238D348DF9015A
:10249000278948EF5FEF60E070E0203121F048EFDE
:1024A0005FEF6FEF7FE084179507A607B70708F087
:1024B00054CFF80186839783A087B18753CFE11467
:1024C000F10491F5D8011A964D915D916D917C9131
:1024D0001D9753968D919D910D90BC91A02D4817FD
:1024E00059076A077B0700F10E94D409882309F481
:1024F000B6CF40921B0250921C0260921D02709255
:102500001E028091070A81608093070A9701235F6A
:10251000344FD501C901880D991DF9018E179F0708
:1025200059F04D914193FACF41E0C301B2010E94AD
:102530000F0A8111EBCF93CF821B930BA80EB91E0C
:102540006BCFF80183899489A589B689841795078B
:10255000A607B70738F48481438B548B658B768B41
:1025600080688483F801848183FD18C0C1010F90C5
:102570000F900F900F90DF91CF911F910F91FF90CF
:10258000EF90DF90CF90BF90AF909F908F907F9013
:102590006F905F904F903F902F900895C80131DD6C
:1025A000882309F45CCFE2CFCF93DF931F92CDB79E
:1025B000DEB7698341E050E0BE016F5F7F4F69DEA7
:1025C0000F90DF91CF910895FC01DB0112968D9160
:1025D0009C9113979383828385ED92E0918380830E
:1025E00014968C911497848315968C9115978583F6
:1025F00016964D915D916D917C9119974683578305
:10260000608771871A964D915D916D917C911D97B0
:1026100042875387648775871E964D915D916D91B2
:102620007C91519746875787608B718B52968C911E
:102630005297828B53964D915D916D917C915697F7
:10264000438B548B658B768B57964D915D916D9135
:102650007C915A97478B508F618F728F5B968D91CB
:102660009C91948F838F0895FC01818D928D0097AA
:1026700009F0C7CC0895DC015996ED91FC91309793
:10268000B9F083899489A589B68942855385648583
:102690007585841B950BA60BB70B811520E8920757
:1026A000A105B10538F08FEF9FE7A0E0B0E00895F5
:1026B00090E080E00895CF93DF93EC01E98DFA8DEF
:1026C000309749F481E090E09B838A8390E080E03A
:1026D000DF91CF91089513821282898D9A8DD9DD71
:1026E000E98DFA8D22813381232B61F7F1CFCF93CE
:1026F000DF931F92CDB7DEB76983DC01ED91FC91CA
:102700000280F381E02D41E050E0BE016F5F7F4F1A
:1027100019950F90DF91CF910895CF93DF931F927A
:10272000CDB7DEB741E050E0BE016F5F7F4F65DBA4
:10273000019731F4898190E00F90DF91CF91089556
:102740008FEF9FEFF9CFFC01818D928D009709F0FB
:10275000E4CF8FEF9FEF08950F931F93CF93DF93F5
:10276000EC01898D9A8D10E000E0009789F0D5DFAB
:102770008C010F3F100761F0898D9A8DFC01428515
:102780005385648575854150510961097109ABD93B
:10279000C801DF91CF911F910F910895CF93DF93DF
:1027A000EC0181E00E94D105BE0188ED9FE0DF9140
:1027B000CF910C943F0461E087E00E94B30264E68D
:1027C00070E080E090E00E94970360E087E00C9466
:1027D000B3022091010A3091020AECECFAE080E2A7
:1027E000AF014C5C5A402417350714F08193F8CFA1
:1027F0001092020A1092010A08951F93CF93DF935B
:10280000D0E0C0E0C230D105E9F1C330D10509F410
:1028100044C0C130D10539F160E080E00E94D105AB
:1028200062E088ED9FE00E94BE0511E060E0812F2C
:102830000E94D10561E088ED9FE00E94BE051F5F08
:102840001331A1F760E083E10E94D10564E088EDD7
:102850009FE00E94BE052196C430D10599F6DF9114
:10286000CF911F91089561E080E00E94D10560E062
:1028700088ED9FE00E94BE0561E083E10E94D105E2
:1028800060E0E5CF62E080E00E94D10560E088ED85
:102890009FE00E94BE0562E0F0CF63E080E00E940E
:1028A000D10563E088ED9FE00E94BE0511E063E082
:1028B000812F0E94D10561E088ED9FE00E94BE0556
:1028C0001F5F1331A1F763E083E10E94D10565E04A
:1028D000BECF90E080E008958F929F92AF92BF921A
:1028E000CF92DF92EF92FF920F931F93CF93DF93DC
:1028F00000D01F92CDB7DEB7FC018581813091F009
:1029000080E00F900F900F900F90DF91CF911F916B
:102910000F91FF90EF90DF90CF90BF90AF909F907E
:102920008F900895848181FFEBCF83899489A58955
:10293000B689892B8A2B8B2B09F45BC07F0140E081
:1029400050E0BA01CF01CFD88823D1F2F701C38C70
:10295000D48C8788908CA18CB28C82E090E0A0E02F
:10296000B0E0F60180839183A283B3839E012F5F41
:102970003F4FB501A401C6010E94360C882309F41B
:10298000BFCF00E010E09801B501A401C6010E948C
:10299000950B882309F4B4CF89809A80AB80BC80E2
:1029A000F6018789803101F188EF9FEFAFEFBFE03B
:1029B00088169906AA06BB06C8F2F701178A108E78
:1029C000118E128E138A148A158A168A8481806861
:1029D0008483C70116DB882309F492CF40E050E0DE
:1029E000BA01C70180D88DCF88EF9FEFA0E0B0E09B
:1029F000DFCF81E086CFCF92DF92EF92FF921F93DD
:102A0000CF93DF93EC0180E2689FF0011124E35F34
:102A1000F44F9385917161F0842F827449F080E0C6
:102A2000DF91CF911F91FF90EF90DF90CF900895AD
:102A3000142F6A8B80911B0290911C02A0911D02A1
:102A4000B0911E028E879F87A88BB98BC488D588CA
:102A5000F12CE12C7601DD24CC24CF8AD88EE98EAE
:102A6000FA8E828D938DB0E0A0E0AC01BD014C29BF
:102A70005D296E297F294F8B588F698F7A8F8385C7
:102A80008871B1F4848D958DA68DB78D8B8B9C8BC1
:102A9000AD8BBE8B81E08D831F701C831E821F82D5
:102AA000188619861A861B861C861D8681E0B8CF7B
:102AB000803109F0B4CF9E012D5E3F4F8B8D9C8DF0
:102AC0000E94B60C882309F4AACF84E0E4CFCF9308
:102AD000DF93EC012C813D8184E190E0821B930B1C
:102AE00097FD0196959587950E94D105BE0188EDC9
:102AF0009FE0DF91CF910C943F04EF92FF920F93F0
:102B00001F93CF93DF93E82EF62EC7E0D0E0042F7B
:102B100010E0B8010C2E02C0759567950A94E2F793
:102B200061708E2D0E94B30261E08F2D0E94B3026E
:102B300060E08F2D0E94B302219758F7DF91CF916B
:102B40001F910F91FF90EF9008951F93CF93DF9304
:102B5000182FCDEED0E161E089810E94100361E081
:102B600089810E94B30261E088810E94B30260E023
:102B700089810E94B30260E088810E94B302412FE4
:102B800068818981DF91CF911F91B7CF1F93CF9338
:102B9000DF93182FCDEED0E161E089810E94100310
:102BA000412F68818981DF91CF911F91A6CFCF936B
:102BB000DF939091F610992349F194EE9093BC0025
:102BC0009091BC0097FFFCCF90ED9093BB0094ECEC
:102BD0009093BC009091BC0097FFFCCF8093BB000A
:102BE00084EC8093BC008091BC0087FFFCCF609395
:102BF000BB0084EC8093BC008091BC0087FFFCCFBD
:102C000084E98093BC00DF91CF910895C62FD82F1F
:102C100080ED9BDF0E944C038D2FB8DF0E944C0398
:102C20008C2FB4DF0E944C03DF91CF910C945D0395
:102C3000BF92CF92DF92EF92FF920F931F93CF93A9
:102C4000DF9300D000D01F921F92CDB7DEB78091E6
:102C5000F610882309F49EC084EE8093BC00809116
:102C6000BC0087FFFCCF80ED8093BB0084EC809399
:102C7000BC008091BC0087FFFCCF1092BB0084ECAD
:102C80008093BC008091BC0087FFFCCF84EE8093D2
:102C9000BC008091BC0087FFFCCF81ED8093BB001E
:102CA00084EC8093BC008091BC0087FFFCCFEFEEEA
:102CB000F0E186EF90E134EC3093BC002091BC0051
:102CC00027FFFCCF2091BB0021938E179F07A1F710
:102CD00084E88093BC008091BC0087FFFCCF84E92E
:102CE0008093BC004091EF10842F829587705AE04A
:102CF0004F70859F400D11243091F010832F8295E5
:102D000087703F70859F300D11246091F110262F40
:102D10002F70862F90E067FFA7C065FB882780F99A
:102D2000FCE08F9F200D1124F091F2105091F310D0
:102D30006091F4108091F510952F929597707AE03C
:102D40005F70979F500D1124E62FE295E7706F702A
:102D5000E79F600D1124982F92959F708F70979F19
:102D6000800D112490E08053984F9F838E83782F9D
:102D70008F819F2F28960FB6F894DEBF0FBECDBF70
:102D8000DF91CF911F910F91FF90EF90DF90CF9047
:102D9000BF90089580EDD9DE0E944C0380E0F6DEFE
:102DA0000E944C0381EDD1DE0E944C03EFEECE2E4B
:102DB000E0E1DE2E10E000E060E08091EE100E9485
:102DC000100377E0E72EF12CB12C61E08091ED103B
:102DD0000E94B3028091EE100E948B0299270E2C64
:102DE00001C0880F0A94EAF7B82A60E08091ED10DC
:102DF0000E94B30281E0E81AF10838F7F601B192B7
:102E00006F018091EE1061E00630110521F10E9402
:102E1000100360E08091ED100E94B30260E08091A9
:102E2000EE100E94B30261E08091ED100E94B302A7
:102E300060E08091ED100E94B30260E08091EE109E
:102E40000E9410030F5F1F4F0730110509F0B4CF28
:102E50000E945D0347CF0E94100360E08091ED1057
:102E60000E94B30261E0DBCF64E0959587956A9597
:102E7000E1F78370859F200D112456CF0E94986042
:102E8000FB0101900020E9F73197AF01461B570B7A
:102E9000DC01ED91FC910280F381E02D19940F93F8
:102EA0001F93CF93DF93EC01EBDF8C016DED72E0AC
:102EB000CE01E6DF800F911FDF91CF911F910F911F
:102EC00008950F931F93CF93DF93EC010E943F046B
:102ED0008C016DED72E0CE01D3DF800F911FDF9189
:102EE000CF911F910F910895682F81E00E94D10525
:102EF00060EE72E088ED9FE0C3CFFC01808191819C
:102F0000009711F00C94855D60E070E0CB010895AE
:102F1000AF92BF92CF92DF92EF92FF920F931F93E7
:102F2000CF93DF93DC01CD90DC901197C114D104D5
:102F300039F01496CD91DC918C017601209761F4E3
:102F4000DF91CF911F910F91FF90EF90DF90CF9085
:102F5000BF90AF90089575015701BFEFAB1ABB0A40
:102F6000F7018081082E000C990B0E94125E892BBC
:102F700091F72197CC0DDD1D8881082E000C990B4F
:102F80000E94125E892B29F0CE15DF0510F02197E3
:102F9000F3CFAE014F5F5F4F4E195F09D801159611
:102FA0005C934E931497CE14DF0420F4B701C6014E
:102FB0000E94B160D801ED91FC91119714968D910A
:102FC0009C91E80FF91F1082BBCFFC012481358151
:102FD000232B39F421E0FB018081882349F020E094
:102FE00007C0808191810E94C56021E0892BB9F7DB
:102FF000822F0895EADF91E0811190E0892F0895F2
:10300000FC0124813581FB0144815581241735075A
:10301000E1F4FC0180819181FB0160817181009765
:10302000D1F061157105A1F4232BC1F0FC01808161
:1030300090E008C0232B91F0FB01808190E09195F6
:103040008195910921E0892B09F020E0822F0895D4
:103050000E94C560F7CF6115710561F721E0F6CFD9
:103060000F931F93CF93DF938C01EB01FC018081C1
:1030700091810097E1F06881798161157105A9F06E
:10308000428153812C813D814217530770F00E9489
:10309000CE608C819D81F801958384831D821C8282
:1030A000DF91CF911F910F9108950E94335F888126
:1030B0009981F801918380838A819B8193838283A4
:1030C0008C819D8195838483198218821B821A8248
:1030D000E5CFCF93DF93EC0188819981009711F0C0
:1030E0000E94335F198218821D821C821B821A8201
:1030F000DF91CF910895FC01808191810C94335F21
:10310000CF93DF93EC01898D9A8D009741F00E9457
:103110002E10898D9A8D0E94335F1A8E198EDF9141
:10312000CF9108950F931F93CF93DF93EC01888184
:103130009981009759F02A813B812617370730F093
:1031400081E0DF91CF911F910F9108958B016F5F07
:103150007F4F0E94BC5F009759F0998388831B833F
:103160000A832C813D81232B59F7FC011082E8CF83
:1031700080E0E7CFEF92FF920F931F93CF93DF93FF
:103180006115710541F480E0DF91CF911F910F919E
:10319000FF90EF90089541155105A9F07B01EC01D6
:1031A0000C811D81040F151FB801BCDF882359F362
:1031B000288139818C819D81B701820F931F0E94E4
:1031C000CE601D830C8381E0DFCF0F931F93CF93DD
:1031D000DF931F921F92CDB7DEB78C0169831A82ED
:1031E00041E050E0BE016F5F7F4FC4DF811102C03C
:1031F000C8016FDFC8010F900F90DF91CF911F9131
:103200000F910895CF93DF93EC01FB010190002013
:10321000E9F73197AF01461B570BACDF811102C0B4
:10322000CE0157DFCE01DF91CF910895CF93DF9389
:10323000EC01FB0144815581608171819BDF81112B
:1032400002C0CE0146DFCE01DF91CF910895EF920B
:10325000FF920F931F93CF93DF93EC017B018A01C1
:10326000BA0160DF81110AC0CE0133DFCE01DF91E8
:10327000CF911F910F91FF90EF9008951D830C83C4
:10328000B701888199810E94CE60F0CFFB01019047
:103290000020E9F73197AF01461B570BD8CF0F93AA
:1032A0001F93CF93DF93CDB7DEB762970FB6F89435
:1032B000DEBF0FBECDBF8C01CB01F80111821082A1
:1032C00013821282158214824AE0BE016F5F7F4F23
:1032D0000E94AB5DBE016F5F7F4FC801D7DF629672
:1032E0000FB6F894DEBF0FBECDBFDF91CF911F9117
:1032F0000F9108950F931F93CF93DF93CDB7DEB750
:10330000A2970FB6F894DEBF0FBECDBF8C01CB01E4
:10331000BA01F8011182108213821282158214827E
:103320002AE0AE014F5F5F4F0E94B55DBE016F5F47
:103330007F4FC801ABDFA2960FB6F894DEBF0FBE79
:10334000CDBFDF91CF911F910F910895CF93DF9360
:103350001F921F92CDB7DEB7FC011182108213823B
:1033600012821582148269831A82BE016F5F7F4FB9
:103370008DDF0F900F90DF91CF910895CF93DF9362
:10338000EC01FB018617970741F06081718161159F
:10339000710539F0448155815ADFCE01DF91CF911B
:1033A000089597DEFACFFC011182108213821282F7
:1033B00015821482E3CFFC011182108213821282E3
:1033C000158214826115710549F0FB0101900020FE
:1033D000E9F73197AF01461B570B39CF08954F924C
:1033E0005F926F927F928F929F92AF92BF92CF9295
:1033F000DF92EF92FF920F931F93CF93DF93CDB79E
:10340000DEB7E6970FB6F894DEBF0FBECDBF7C01E6
:103410005B01CE0101966C018E01055D1F4F3C01E1
:103420006FED72E0C601C7DF96E0C90ED11C0C1526
:103430001D05B1F76FED72E0C701BDDF912C812C46
:10344000CC24C394D12C96E0592EB601C5010E941C
:103450002C04FC016081C80179DF63EF72E0C801D0
:10346000B4DD482EC80147DE81E041102BC0B60113
:10347000C5010E942C04FC016081C80167DF63E57F
:1034800078E0C801B7DD482EC80135DEB601C501B8
:10349000442009F441C00E942C04FC016081C80151
:1034A00055DFB701CE01C1967EDFB801CE01C196CE
:1034B000BDDEBC01C70162DFCE01C1961CDEC801C2
:1034C0001ADE80E09FEFC91AD90A882309F4BDCF1C
:1034D000BE01635F7F4FC70151DF06501109C8016C
:1034E0000ADE60167106C9F7C701E6960FB6F894B2
:1034F000DEBF0FBECDBFDF91CF911F910F91FF9027
:10350000EF90DF90CF90BF90AF909F908F907F9083
:103510006F905F904F9008950E942C04FC01608191
:10352000C80114DF63E578E0C8014FDD482EC8010B
:10353000E2DD442031F2589CC001599C900D1124C9
:10354000B701860D971D1ADF6FED72E0C7019EDE91
:10355000FFEF8F1A9F0AB5CF9F92AF92BF92CF9283
:10356000DF92EF92FF920F931F93CF93DF9300D0E0
:1035700000D0CDB7DEB78C015B016FED72E01BDFD1
:103580008CECC82E8AE0D82E98EDE92E9AE0F92E20
:10359000C701885D9A408A159B05BCF4F7018191AB
:1035A0007F01843491F0F60191906F01B801CE0152
:1035B0000196F9DE692DCE01019607DEBC01C80136
:1035C000DDDECE01019697DDE3CFC80126960FB66A
:1035D000F894DEBF0FBECDBFDF91CF911F910F9149
:1035E000FF90EF90DF90CF90BF90AF909F900895A5
:1035F000AF92BF92CF92DF92EF92FF920F931F9301
:10360000CF93DF936C015B017A01890124173507A1
:1036100020F48F2D7901042F182F6FED72E0C60171
:10362000CADED5011496CD91DC91EC16FD06D8F4D6
:103630000C171D0708F4E801D501ED91FC911197D5
:10364000EC0FFD1F108110826D917C916E0D7F1D1E
:10365000C6016115710599F019DEF501808191812E
:10366000C80FD91F1883C601DF91CF911F910F9109
:10367000FF90EF90DF90CF90BF90AF90089529DD3D
:10368000ECCF0F931F93CF93DF9300D000D000D0E7
:10369000CDB7DEB78C01CCDA29833A834B835C83C8
:1036A0006D837E838F83988780E32A3028F0822F72
:1036B0006AE00E945C5E805D809312023AE0822F95
:1036C000632F0E945C5E905D909313028AE3809367
:1036D00014022A8180E32A3020F0822F0E945C5E4F
:1036E000805D809315023AE0822F632F0E945C5E1A
:1036F000905D909316028AE3809317022B8180E3FA
:103700002A3020F0822F0E945C5E805D8093180238
:10371000822F6AE00E945C5E905D90931902109285
:103720001A0289E0E5EFF2E0DE01119601900D92B8
:103730008A95E1F7E2E1F2E0DE011196819190EDE8
:10374000980F9B3008F48C93119682E0EA31F807C9
:10375000A9F7BE016F5F7F4FC8012DDEC801299612
:103760000FB6F894DEBF0FBECDBFDF91CF911F9192
:103770000F9108950F931F93CF93DF9300D000D044
:1037800000D01F921F92CDB7DEB78C0151DA29838A
:103790003A834B835C836D837E838F83988780E33A
:1037A0005A3028F0852F6AE00E945C5E805D80932D
:1037B00007023AE0852F632F0E945C5E905D909334
:1037C00008028EE2809309022D8180E32A3020F0E6
:1037D000822F0E945C5E805D80930A02822F6AE0E5
:1037E0000E945C5E905D90930B028EE280930C02CF
:1037F0002E813F81C90168EE73E00E94685E605DC2
:1038000060930D02E4E6F0E0BF010E94685E605D37
:1038100060930E02C901BF010E94685EEAE0F0E019
:10382000BF010E94685E605D60930F02C901BF0125
:103830000E94685E805D80931002109211028BE0FE
:10384000EEEFF2E0DE01119601900D928A95E1F71C
:10385000E7E0F2E0DE0111968191282F082E000C9E
:10386000330B205331092A30310510F08E3209F420
:103870008C93119682E0E231F80771F7BE016F5F19
:103880007F4FC80198DDC8012B960FB6F894DEBFB4
:103890000FBECDBFDF91CF911F910F9108950F9370
:1038A0001F93CF93DF93CDB7DEB76E970FB6F89423
:1038B000DEBF0FBECDBF8C01CE0107965BDF2B852F
:1038C0003C8548E050E0BE01695F7F4FCE010D9618
:1038D0008FDE25E030E043E050E0BE01695F7F4FBE
:1038E000CE01439685DE22E030E050E040E0BE01AC
:1038F000695F7F4FCE0149967BDEBE01635F7F4FDC
:10390000CE01019650DD61E277E0CE0101967ADCCE
:10391000BE016D5E7F4F8ADC61E277E073DCBE0141
:10392000675E7F4F83DCBC01C8013DDDCE0101969F
:10393000E2DBCE014996DFDBCE014396DCDBCE0134
:103940000D96D9DBCE010796D6DBC8016E960FB671
:10395000F894DEBF0FBECDBFDF91CF911F910F91C5
:103960000895EF92FF920F931F93CF93DF9300D0B0
:1039700000D0CDB7DEB77C018B0169E073E0CE01EA
:10398000019619DDB701CE01019650DC61E173E0CB
:1039900039DCBC018DE09DE094DACE010196ABDB11
:1039A00068EC70E080E090E00E949703B8018DE041
:1039B0009DE00E943F046AEF70E080E090E00E948A
:1039C00097036AE18DE09DE00E9416056AEF70E0C2
:1039D00080E090E00E9497038DE09DE00E946205E8
:1039E000EDE0FDE0A289B3898C918F7E8C93A28952
:1039F000B3898C91877F8C93A289B3898C918F77BF
:103A00008C93A289B3898C918F7D8C93828D818FC9
:103A1000CF010E94440126960FB6F894DEBF0FBE78
:103A2000CDBFDF91CF911F910F91FF90EF9008953F
:103A30003F924F925F926F927F928F929F92AF923E
:103A4000BF92CF92DF92EF92FF920F931F93CF938B
:103A5000DF9300D000D000D01F921F92CDB7DEB709
:103A60007C01DC0115968C91811115C0FE01319607
:103A7000CE010C966F0130E23193E817F907E1F7B8
:103A8000DA0130E087E09D91B92E992329F19E3229
:103A900039F48A3011F480E0D9C038E08AE0F3CFFD
:103AA000E0EFF0E04491442321F031969413FACFF3
:103AB000F2CF831780F34FED490F4E3560F74FE992
:103AC000490F4A3118F440EEB42EB90EF601E30F57
:103AD000F11DB0823F5FD7CF89818032E1F2322E73
:103AE0008B01FB01838D948DD7015C969C938E9303
:103AF0005B971682178210861186128613861486AB
:103B00001586F80182859385A485B58543895489F6
:103B10006589768984179507A607B70708F04DC011
:103B200025E0B695A795979587952A95D1F7F82F13
:103B3000FF70AF2ED80115968C91823008F4ABCF70
:103B4000C8010E948D1397FDA6CFF8018285938549
:103B5000A485B5854F96A11DB11D82879387A48743
:103B6000B587F0E2AF9EB0011124635F744F611519
:103B7000710509F490CFDB018C91882341F0853EDB
:103B800009F057C0BB2029F0BB24B394BACFB110C1
:103B90000EC0F701A28A80911B0290911C02A09195
:103BA0001D02B0911E0286879787A08BB18BDB0127
:103BB0008C918111E9CFBB24B394832D8271823122
:103BC00009F069CFBB2009F459C0C7010E94560A09
:103BD000009709F460CF20E2FC0111922A95E9F7E1
:103BE0002BE0F601DC0101900D922A95E1F721E22C
:103BF00038E2DC0151963C932E93509740E058E018
:103C00001F965C934E931E9753963C932E93529718
:103C100059963C932E93589757965C934E9356978C
:103C20000E94D409882309F436CF432DF701628915
:103C30000AC04BE050E0C6010E94A460892B09F045
:103C400060CF432D6A2DC7010E94FB142B960FB63F
:103C5000F894DEBF0FBECDBFDF91CF911F910F91C2
:103C6000FF90EF90DF90CF90BF90AF909F908F909C
:103C70007F906F905F904F903F900895F8018581FD
:103C8000823009F408CFC8010E94060E882309F487
:103C900002CFD8015B96ED91FC915C9716968D90C2
:103CA0009D90AD90BC901997B2E08B1A9108A10835
:103CB000B108858504C0880C991CAA1CBB1C8A9578
:103CC000D2F786859785A089B189880E991EAA1E8C
:103CD000BB1E848124013501480E511C611C711CDE
:103CE00084149504A604B70401F1E1E04E1A5108CA
:103CF000610871080E94D409882309F4CCCEEDE054
:103D0000FBE011928DE09DE08E179F07D1F7409266
:103D10001B0250921C0260921D0270921E02809142
:103D2000070A81608093070ADBCFD8015B96ED918B
:103D3000FC91258580E092E0A0E0B0E004C0880F0F
:103D4000991FAA1FBB1F2A95D2F7F80143895489EE
:103D500065897689840F951FA61FB71F838B948B67
:103D6000A58BB68BD70152961C928DE09BE033CF8A
:103D70005F926F927F928F929F92AF92BF92CF92FB
:103D8000DF92EF92FF920F931F93CF93DF93CDB704
:103D9000DEB7C754D1090FB6F894DEBF0FBECDBF52
:103DA0005C013B0119A218A285ED92E09F8F8E8FD6
:103DB0001BA21C821B829A8389831E8210E000E072
:103DC0006E018EE1C80ED11C89EBE82E8FE0F82E33
:103DD000F501E00FF11F80818F3211F40F5F1F4F4B
:103DE000D501A00FB11FFE01FB9690E080E04F01CE
:103DF0002D912F3249F0222339F00F5F1F4F01968A
:103E000021938C309105A1F7880D991DFC0110823A
:103E1000F501E00FF11F80818F3211F40F5F1F4F0A
:103E2000F501E00FF11F508041E0511040E030E01B
:103E300020E0B401C701F3011995811121C0F9EB0C
:103E4000EF16FFE0FF06C1F480E0C95BDF4F0FB65D
:103E5000F894DEBF0FBECDBFDF91CF911F910F91C0
:103E6000FF90EF90DF90CF90BF90AF909F908F909A
:103E70007F906F905F900895C7010E942E10E4CF4D
:103E8000552089F021E0A401B701C601D1DD982EAB
:103E900089EBE8168FE0F80681F0C7010E942E102A
:103EA000911010C0D1CF99EBE9169FE0F90619F0F7
:103EB000C7010E942E1081E0C8CF992029F2FE018F
:103EC00031967F019E2D8F2D7601C92ED82E80CF61
:103ED000CF93DF93EC010E94391062EE7FE188817D
:103EE0009981DF91CF9144CFFF920F931F93CF938E
:103EF000DF9300D000D0CDB7DEB78C01BC01CE017E
:103F0000019651DACE010196E3DFF82ECE0101963B
:103F1000F2D8FF2061F00E94391063EA7FE1F801D6
:103F20008081918125DF89EB9FE00E942E102696EB
:103F30000FB6F894DEBF0FBECDBFDF91CF911F91BA
:103F40000F91FF900895CF93DF93CDB7DEB76D97B4
:103F50000FB6F894DEBF0FBECDBF442389F1AB018D
:103F6000BC011C821B8285ED92E09A8389831E82AC
:103F700022E0CE0101965CDD81110EC090E081E06F
:103F8000911101C080E06D960FB6F894DEBF0FBEB0
:103F9000CDBFDF91CF910895CE0101960E946C14A0
:103FA000882361F3CE0101960E94560A009731F3EF
:103FB00025EEFC0120831E820E94D409982FDFCFBA
:103FC00081E0E1CF1F93CF93DF93CDB7DEB76D973D
:103FD0000FB6F894DEBF0FBECDBFAB011C821B82B3
:103FE00025ED32E03A8329831E8221E0BC01CE0117
:103FF00001961EDD11E081110CC010E0812F6D963D
:104000000FB6F894DEBF0FBECDBFDF91CF911F91E9
:104010000895CE0101960E942E10F0CFEF92FF92EC
:104020000F931F93CF93DF93EC017B018A011B82D7
:104030001A8288EE93E0A0E0B0E08C839D83AE838B
:10404000BF8383EC92E0998388838DE190E00E94A6
:10405000975E9A8F898F009779F02DE1F701DC0147
:1040600001900D922A95E1F74CE050E0B801CE01A5
:104070000C960E94D560188EDF91CF911F910F9101
:10408000FF90EF9008952F923F924F925F926F9220
:104090007F928F929F92AF92BF92CF92DF92EF92D8
:1040A000FF920F931F93CF93DF93CDB7DEB7C75621
:1040B000D1090FB6F894DEBF0FBECDBF5C013B0146
:1040C000A6964FAFA69719A218A285ED92E09F8FF2
:1040D0008E8F1BA21C821B829A8389831E824E01B3
:1040E0008EE1880E911CC4010E94200D63018E0197
:1040F0000F5F1F4F240118016FE270E0C6010E949C
:10410000BA60009709F457C0F60120812F3271F48C
:10411000FFEFCF1ADF0A902F812F8201492E582EF0
:10412000942D852D2801092F182FE6CF8C198D305D
:1041300008F08CE0E82EF12CA701B601CE01885AD8
:104140009F4F0E94D560E8E5F0E0EC0FFD1FEE0DFB
:10415000FF1D1082C8010E942E1021E0AE01485AB6
:104160005F4FB201C80164DC81111FC01EAE1DAEDD
:1041700085ED92E09CAF8BAF21961FAE2197A8965C
:10418000EEADFFADA8976E0E7F1EF3018081811109
:104190001FC0BE01655C7F4FC1010E94E41241E275
:1041A00057E0B101C5013ADF31C0CE0CDF1CC201BE
:1041B0000E942E10B5CFC60186199709A8969FAF09
:1041C0008EAFA897B201CE01CB960E94E412D7CF52
:1041D00019A218A285ED92E09F8F8E8F1BA22196C7
:1041E0008FAD219781112DC0F5011382128288EEC7
:1041F00093E0A0E0B0E084839583A683B78383EC4B
:1042000092E091838083128E118E1486C501C95964
:10421000DF4F0FB6F894DEBF0FBECDBFDF91CF9159
:104220001F910F91FF90EF90DF90CF90BF90AF90D4
:104230009F908F907F906F905F904F903F902F90C6
:104240000895A6962FADA697A301BE01655C7F4F8A
:10425000C401EEDB882341F2CE01CB960E942E10E2
:10426000A6968FADA6978670863039F449A95AA9CB
:104270006BA97CA9C4010E94730DB401C1010E9405
:10428000E412A3018ECFEF92FF920F931F93CF936F
:10429000DF93CDB7DEB76B970FB6F894DEBF0FBED6
:1042A000CDBF8C017B010E943910F70160817181C3
:1042B00041E0CE010196E7DECE0101960E946B013E
:1042C0006FED72E0C80177D8E091D910F091DA1063
:1042D000309751F18581882339F180EC90E10E947B
:1042E0003B13892B79F080EC90E10E94A313898322
:1042F0001A8241E050E0BE016F5F7F4FC8010E940B
:10430000BA18EBCF80EC90E10E948018C8016B9640
:104310000FB6F894DEBF0FBECDBFDF91CF911F91D6
:104320000F91FF90EF90089563E173E084EE9EE0BB
:104330000E944F17EBCF4F925F926F927F928F92B6
:104340009F92AF92BF92CF92DF92EF92FF920F9324
:104350001F93CF93DF93CDB7DEB7C254D1090FB609
:10436000F894DEBF0FBECDBF7C015A0169018E01FA
:10437000055D1F4FC8010E944F19B601CE0101967D
:104380006C0111D861E277E0C6010E940219B80100
:104390000E9416196DE673E00E940219BC01CE015D
:1043A000C79601D8C6010E947B18C8010E947B18DD
:1043B000BE01695C7F4FC6010E94D319B601CE01D0
:1043C000CD9661DFC6010E947B1846016FED72E059
:1043D000C4010E94DB1996E0890E911C801691069B
:1043E000A9F76FED72E0C7010E94DB196FED72E073
:1043F000CE0185960E94461988248394912C712CB5
:10440000612C96E0592EB401CE01CD960E942C0469
:10441000FC016081C8010E94A61963EF72E0C80127
:104420000E94E517482EC8010E947B1881E04110C8
:1044300037C0B401CE01CD960E942C04FC016081EE
:10444000C8010E94A61963E578E0C8010E94FA1726
:10445000482EC8010E947B18B401CE01CD9644209D
:1044600009F468C00E942C04FC016081CE01C19651
:104470000E94A619B701C8010E94D319BE016F5C42
:104480007F4FC8010E941619BC01C7010E94BE19C6
:10449000C8010E947B18CE01C1960E947B1880E063
:1044A0009FEF891A990A882309F4ADCFBE016D5E8A
:1044B0007F4FE3E0AE16B10489F00CF061C0BE019D
:1044C000695F7F4F81E0A816B10441F0BE01635FD0
:1044D0007F4F92E0A916B10409F0B601C7010E940E
:1044E000BE1906501109C8010E947B18C016D106DA
:1044F000C1F7CE01CD960E947B18CE01C7960E94CF
:104500007B18C701CE5BDF4F0FB6F894DEBF0FBE3E
:10451000CDBFDF91CF911F910F91FF90EF90DF9072
:10452000CF90BF90AF909F908F907F906F905F9053
:104530004F9008950E942C04FC016081C8010E94E4
:10454000A61963E578E0C8010E94E517482EC80166
:104550000E947B18442009F4A2CF569CC001579CAE
:10456000900D1124B7018C0D9D1D0E94BE196FED99
:1045700072E0C7010E944619FFEF6F1A7F0A8FCFC2
:10458000E5E0AE16B104B1F0BE01675E7F4FF5E025
:10459000AF16B1040CF4A2CF86E0A816B10409F05E
:1045A0009CCF86E08A9DB0018B9D700D11246C0D0F
:1045B0007D1D94CFBE01615E7F4FC7010E94BE1971
:1045C000F0CFEF92FF920F931F93CF93DF93CDB76E
:1045D000DEB76B970FB6F894DEBF0FBECDBF7C0180
:1045E0008B010E943910F7016081718147E1CE0192
:1045F000019649DDCE0101960E946B01E091D91030
:10460000F091DA103097E9F085818823D1F0B80174
:1046100080EC90E10E94611780EC90E10E9480188C
:1046200089EB9FE00E942E106B960FB6F894DEBFC8
:104630000FBECDBFDF91CF911F910F91FF90EF90F3
:1046400008956AE273E084EE9EE00E944F17E8CF7F
:104650003F924F925F926F927F928F929F92AF9212
:10466000BF92CF92DF92EF92FF920F931F93CF935F
:10467000DF93CDB7DEB7CD59D1090FB6F894DEBFC1
:104680000FBECDBF7C010E943910D7016D917C9186
:1046900041E0CE018A589F4FF6DC88EE482E83E039
:1046A000582E612C712C93ECC92E92E0D92E25ED59
:1046B000822E22E0922E3EE2332E4BE5A42EB12C28
:1046C000AC0EBD1EBCE0AB0EB11CC157DF4F088164
:1046D0001981CF58D040F8018581823008F4B7C0E5
:1046E00082859385A485B5858F719927AA27BB27D5
:1046F000892B8A2B8B2B09F0AAC040E250E0BE0127
:104700006F5F7F4FC8010E94FD0E803209F09FC08D
:104710008981882309F49BC0853E79F38E3269F341
:104720008C8583FDEACF22961FAE1EAE22979FAEE8
:104730008EAE24961FAE2497AE014F5F5F4FE0E030
:1047400080E0DA019D91AD019032A1F0883049F40A
:1047500021E930E02C0F3D1F2E0F311DD9013C9275
:10476000EF5F21E930E02C0F3D1F2E0F311DD901E5
:104770009C93EF5F8F5F8B3021F781E990E08C0F86
:104780009D1F8E0F911DFC011082C157DF4F688164
:104790007981CF58D04021E0AE014F565F4FCE0116
:1047A000CE9646D9882309F452C0BE01625C7F4F81
:1047B000CE0181960E94E412AE014F565F4FBE01BA
:1047C0006F5D7F4FCE01855A9F4F28DCE696EEAD98
:1047D000FFADE697309709F450C08581882309F42E
:1047E0004CC0CE01855A9F4F0E948018B501CE0162
:1047F000CE960E94DB19B701CE0181960E94D31993
:10480000BE01625C7F4FCE0181960E941619BC01E9
:10481000CE0101960E94D319CE0181960E947B1889
:10482000CE01CE960E947B18BE016F5F7F4FCE01F6
:1048300081960E94D319CE01819656DBCE018196D6
:104840000E947B18CE0101960E947B183ECF6F9686
:104850001FAE1EAE6F97A3964CAE5DAE6EAE7FAE32
:10486000A3976D96DFAECEAE6D97E6961FAE1EAEE9
:10487000E697A8961FAEA897A9CFC356DF4F0FB6ED
:10488000F894DEBF0FBECDBFDF91CF911F910F9186
:10489000FF90EF90DF90CF90BF90AF909F908F9060
:1048A0007F906F905F904F903F9008958F929F926E
:1048B000AF92BF92CF92DF92EF92FF920F931F932E
:1048C000CF93DF9300D000D0CDB7DEB78C01C62EDA
:1048D0004A016FED72E00E94DB19F12CE12C0C2CE7
:1048E000000CDD085701AC0CBD1CC5010E942D5EFB
:1048F0008F3F81F1C5010E942D5EB82EB801CE0117
:1049000001960E94D3196B2DCE0101960E94E518E5
:10491000BC01C8010E94BE19CE0101960E947B18FD
:104920008FEFE81AF80A8E149F04E1F6C801269664
:104930000FB6F894DEBF0FBECDBFDF91CF911F91B0
:104940000F91FF90EF90DF90CF90BF90AF909F902E
:104950008F90089580E3B82ED1CF3F924F925F920F
:104960006F927F928F929F92AF92BF92CF92DF927F
:10497000EF92FF920F931F93CF93DF93CDB7DEB7E4
:10498000CE54D1090FB6F894DEBF0FBECDBF6C0177
:104990004A0128E030E050E040E0CE01C7960E9496
:1049A000F81A41E050E061E0CE01CD967FDF6DE383
:1049B00073E0CE018D5B9F4F0E94DB1960EF73E0C7
:1049C000CE01CD960E94FA17882339F065E473E092
:1049D000CE018D5B9F4F0E944619BE016D5B7F4FDC
:1049E000CE0101967C010E94D319BE01695C7F4F04
:1049F000C7010E9416196DE673E00E940219BC01FE
:104A0000CE01875B9F4F0E94D319C7010E947B187C
:104A10006FED72E0C6010E94DB19BE01675B7F4F3C
:104A2000C7010E94D319C70153DA582EC7010E944B
:104A30007B18552009F493C0BE01675B7F4FC70107
:104A40000E94D319B701CE01C1961DDCC7010E9497
:104A50007B1857018E010B5D1F4F6FED72E0C50192
:104A60000E94DB1996E0A90EB11C0A151B05A9F7D7
:104A7000AA24A394B12C712C612C96E0492EB50187
:104A8000CE01C1960E942C04FC016081C8010E94E5
:104A9000A61963EF72E0C8010E94E517382EC8011D
:104AA0000E947B18852D311037C0B501CE01C1960B
:104AB0000E942C04FC016081C8010E94A61963E5D4
:104AC00078E0C8010E94FA17382EC8010E947B18AE
:104AD000B501CE01C196332009F470C00E942C04A8
:104AE000FC016081CE018B960E94A619B601C80117
:104AF0000E94D319BE01655D7F4FC8010E9416193F
:104B0000BC01C6010E94BE19C8010E947B18CE01DB
:104B10008B960E947B1880E09FEFA91AB90A882320
:104B200009F4ADCFE2E08E16910409F46DC0F3E014
:104B30008F16910409F46FC0BE01695F7F4F8A949C
:104B4000892809F464C006501109C8010E947B1825
:104B5000E016F106C1F7CE01C1960E947B18C6018E
:104B60000E948817CE01875B9F4F0E947B18CE0161
:104B70008D5B9F4F0E947B18CE01CD960E947B18C3
:104B8000CE01C7960E947B18C601C25BDF4F0FB6ED
:104B9000F894DEBF0FBECDBFDF91CF911F910F9173
:104BA000FF90EF90DF90CF90BF90AF909F908F904D
:104BB0007F906F905F904F903F9008950E942C04DB
:104BC000FC016081C8010E94A61963E578E0C80174
:104BD0000E94E517382EC8010E947B18332009F483
:104BE0009ACF469CC001479C900D1124B6018E0DB2
:104BF0009F1D0E94BE196FED72E0C6010E9446190A
:104C0000FFEF6F1A7F0A87CFBE01635F7F4FC60138
:104C10000E94BE1998CFBE016D5E7F4FF8CF8F9274
:104C20009F92AF92BF92DF92EF92FF920F931F93EA
:104C3000CF93DF93CDB7DEB762970FB6F894DEBFA0
:104C40000FBECDBF41E050E064E1CE0101962EDE03
:104C5000CE0101960E947D177B01CE0101960E9434
:104C60007B181E141F040CF079C080E9882E80E1A7
:104C7000982E9CE9A92E90E1B92E25E1D22E10E0C4
:104C800000E041E050E06D2DCE0107960FDE61E0BF
:104C90006D0D4BE050E0CE01019608DEBE016F5F66
:104CA0007F4FCE010D960E94D3196FE473E0CE01C1
:104CB0000D960E940219BE01695F7F4F0E9416196E
:104CC00065E573E00E940219BC01C4010E94BE198F
:104CD000CE010D960E947B18BE01695F7F4FCE0109
:104CE0000D960E94D319BE016F5F7F4FCE010D96C6
:104CF0000E941619BC01C5010E94BE19CE010D9675
:104D00000E947B181093000A0093FF09CE010196C0
:104D10000E947B18CE0107960E947B180F5F1F4FE1
:104D20008CE0D80E86E0880E911C86E0A80EB11C9F
:104D30000E151F050CF4A5CF62960FB6F894DEBFD2
:104D40000FBECDBFDF91CF911F910F91FF90EF90DC
:104D5000DF90BF90AF909F908F9008958FEF9FEF5F
:104D60009093FE098093FD09E7CF0F931F93CF9394
:104D7000DF93CDB7DEB7CA58D1090FB6F894DEBFBE
:104D80000FBECDBF8C016FED72E0CE0183599F4FF6
:104D90000E94DB196FED72E0CE018D589F4F0E948B
:104DA000DB196FED72E0CE0187589F4F0E94DB192F
:104DB0006FED72E0CE0181589F4F0E94DB1941E0F8
:104DC00050E061E0CE018B579F4F70DD88ED9FE092
:104DD0000E9448061092040A1092030A0E94FD13D2
:104DE000109206020F30110508F0BAC0F8018827AA
:104DF000E350F94D8F4F0C947B5E0C27D52710287C
:104E0000452BB027392862289B2887291830BA29D2
:104E1000B027412AE22AC82A6FED72E08BED90E1BB
:104E20000E9446198091F5099091F609892B09F0A5
:104E300079C041E050E061E0CE01439637DD67E59F
:104E400073E0CE010D960E94DB1968EC74E0CE0190
:104E500043960E94E51762E375E081110AC061E69E
:104E600073E0CE0143960E94E517882331F060EB92
:104E700076E0CE010D960E94461963E673E0CE01FE
:104E800007960E94DB1962E773E0CE0101960E944B
:104E9000DB19BE01695F7F4FCE0149960E94D3198D
:104EA000CE01499615D8182FCE0149960E947B183D
:104EB000112331F06FE773E0CE0101960E9446198D
:104EC000BE01635F7F4FCE0149960E94D31970E007
:104ED00060E0CE0149960E946715CE0149960E9476
:104EE0007B18BE016F5F7F4FCE0149960E94D31998
:104EF00063E070E0CE0149960E946715CE014996A5
:104F00000E947B18CE0101960E947B18CE01079665
:104F10000E947B18CE010D960E947B18CE0143960D
:104F20000E947B188091F5099091F60901E010E04C
:104F3000081B190B6AE873E0CE0101960E94DB1989
:104F4000B801CE0101960E946715CE0101960E941C
:104F50007B1881E0809306021092E8091092E7091D
:104F6000CE018B579F4F0E947B18CE0181589F4FD7
:104F70000E947B18CE0187589F4F0E947B18CE015C
:104F80008D589F4F0E947B18CE0183599F4F0E94DE
:104F90007B18C657DF4F0FB6F894DEBF0FBECDBFEC
:104FA000DF91CF911F910F91089567E973E08BED29
:104FB00090E10E9446191092E8091092F6091092A9
:104FC000F5096CE973E0CE0101960E94DB1970E0EF
:104FD00060E0CE0101960E946715CE0101960E9405
:104FE0007B1869EA73E0CE0101960E94DB1961E04B
:104FF00070E0CE0101960E94CE13CE0101960E9470
:105000007B186CEB73E0CE0101960E94DB1962E025
:1050100070E0CE0101960E94CE13CE010196B5C27A
:105020006EEC73E08BED90E10E94461967ED73E042
:10503000CE0101960E94DB1970E060E0CE0101967E
:105040000E94CE13CE0101960E947B1862EE73E09F
:10505000CE0101960E94DB1961E070E0CE0101965D
:105060000E94CE13CE0101960E947B1862EF73E07E
:10507000CACF63E074E08BED90E10E9446196FE0C7
:1050800074E0CE0101960E94DB1970E060E0CE0171
:1050900001960E946715CE0101960E947B1867E178
:1050A00074E0CE0101960E94DB1961E070E0CE0150
:1050B00001960E94CE13CE0101960E947B1865E2F4
:1050C00074E0A1CF66E374E08BED90E10E94461995
:1050D00061E474E0CE0101960E94DB1970E060E0AB
:1050E000CE0101960E946715CE0101960E947B18A1
:1050F0006FE474E0CE0101960E94DB1961E070E07C
:10510000CE0101960E94CE13CE0101960E947B181B
:105110006EE574E0CE0101960E94DB1962E070E05A
:10512000CE0101960E94CE13CE0101960E947B18FB
:105130000E94E91315CF68E674E08BED90E10E94C0
:10514000461941E050E064E1CE010196AFDBBE01BB
:105150006F5F7F4FCE018D589F4F0E943018CE0158
:1051600001960E947B1862E070E0CE010D960E94CD
:105170004F19CE018D589F4F0E947D17AB01BC0186
:10518000CE0107960E947A1968E774E0CE01019675
:105190000E94DB19BE01695F7F4FCE0101960E941C
:1051A000161961E277E00E940219BE01635F7F4F2A
:1051B0000E94161965E573E00E940219BC01CE0138
:1051C00043960E94D31970E060E0CE0143960E949E
:1051D000CE13CE0143960E947B18CE0101960E9409
:1051E0007B18CE0107960E947B18CE010D960E9477
:1051F0007B1862E070E0CE0101960E944F19BE015B
:105200006F5F7F4FCE018D589F4F0E940018182F5F
:10521000CE0101960E947B18112309F460C062E060
:1052200070E0CE0107960E944F1962E874E0CE014B
:1052300001960E94DB19BE01695F7F4FCE01019686
:105240000E94161968E874E00E940219BC01CE01A0
:105250000D960E94D31961E070E0CE010D960E9478
:10526000CE13CE010D960E947B18CE0101960E94AE
:105270007B18CE0107960E947B1863E974E0CE018B
:1052800001960E94DB1962E070E0CE0101960E9457
:10529000CE13CE0101960E947B1862E070E0CE0131
:1052A00001960E944F19BE016F5F7F4FCE018D584E
:1052B0009F4F0E940018811107C011E08091010AE0
:1052C0009091020A0B9709F010E0CE0101960E941E
:1052D0007B186CE974E0112309F442CE94CE6091FE
:1052E000010A7091020A16161706BCF6CE01019645
:1052F0000E94AC1A61E070E0CE0101960E94CE13CC
:10530000CE0101960E947B1865EA74E0B8CF6EEA80
:1053100074E08BED90E10E9446196BEB74E0CE01D6
:1053200001960E94DB1970E060E0CE0101960E94B8
:10533000CE13CE0101960E947B188091FD099091B9
:10534000FE0926E0289FB001299F700D11246456A4
:105350007F4ECE0101960E94D31961E070E0CE012C
:1053600001960E94CE13CE0101960E947B186AEC32
:1053700074E049CE68ED74E08BED90E10E9446192F
:105380004EDC62E070E0CE010D960E944F196091F4
:10539000FD097091FE096F5F7F4FCE0107960E9455
:1053A0004F1963EE74E0CE0101960E94DB19BE0135
:1053B000695F7F4FCE0101960E94161961E277E086
:1053C0000E940219BE01635F7F4F0E94161969E1B6
:1053D00079E00E940219BC01CE0183599F4F0E94BF
:1053E000BE19CE0101960E947B18CE0107960E943D
:1053F0007B18CE010D960E947B18BE0163597F4F2A
:10540000CE0101960E94D31970E060E0CE010196B2
:105410000E94CE13CE0101960E947B188091FD0957
:105420009091FE0926E0289FB001299F700D11245C
:1054300060577F4ECE0101960E94D31961E070E063
:10544000CE0101960E94CE13CE0101960E947B18D8
:1054500062EF74E0CE0101960E94DB1962E070E019
:10546000CE0101960E94CE13CE0101960E947B18B8
:105470006DEF74E0CE0101960E94DB1963E070E0ED
:10548000C8CD6FE075E08BED90E10E94461941E0D8
:1054900050E061E0CE01439609DA64E275E0CE01A6
:1054A0000D960E94DB1968EC74E0CE0143960E94D1
:1054B000E51762E375E081110AC061E673E0CE0191
:1054C00043960E94E517882331F060EB76E0CE0129
:1054D0000D960E94461969E275E0CE0107960E947A
:1054E000DB19BE01635F7F4FCE0107960E9416193C
:1054F00065E573E00E940219BC01CE0101960E948D
:10550000D31970E060E0CE0101960E94CE13CE0167
:1055100001960E947B18CE0107960E947B1860E3DB
:1055200075E0CE0101960E94DB1961E070E0CE01CA
:1055300001960E94CE13CE0101960E947B186EEA5E
:1055400076E0CE0101960E94DB1962E070E0CE01A8
:1055500001960E94CE13CE0101960E947B186BE348
:1055600075E0CE0101960E94DB1963E070E0CE0188
:1055700001960E94CE13CE0101960E947B18CE01A7
:105580000D960E947B18CE0143960E947B18E8CCB2
:1055900066E475E08BED90E10E94461981E080930E
:1055A000E80981E090E00E94741782E090E00E9498
:1055B00074176FE475E0CE0101960E94DB1970E06C
:1055C00060E027CD69E575E08BED90E10E9446191A
:1055D0004DE050E062E0CE01439668D944E050E0EF
:1055E0006BE0CE010D9662D964E675E0CE010196BE
:1055F0000E94DB1970E060E0CE0101960E94671501
:10560000CE0101960E947B1861E775E0CE010796F6
:105610000E94DB19BE01635F7F4FCE0107960E9497
:105620001619BC01CE0101960E94D31961E070E009
:10563000CE0101960E94CE13CE0101960E947B18E6
:10564000CE0107960E947B186DE775E0CE010796A4
:105650000E94DB19BE016D5E7F4FCE0107960E944E
:105660001619BC01CE0101960E94D31962E070E0C8
:10567000CE0101960E94CE13CE0101960E947B18A6
:10568000CE0107960E947B187ACFBE016B577F4FE1
:10569000CE0189599F4F0E94D3196FED72E0CE0160
:1056A0008F599F4F0E94DB196FED72E0CE01855A32
:1056B0009F4F0E94DB1961E875E0CE018B5A9F4F26
:1056C0000E94DB1969E875E084E890E10E94E51723
:1056D000882309F412C360E975E08BED90E10E9424
:1056E000461962E176E0CE01855A9F4F0E94461925
:1056F000BE01655A7F4FCE0101960E94D31970E01A
:1057000060E0CE0101960E94CE13CE0101960E9468
:105710007B186091040270910502CE0101960E94EF
:105720004F196BE975E0CE0107960E94DB19BE01A7
:105730006F5F7F4FCE0107960E9416196DE673E0EA
:105740000E940219BC01CE018F599F4F0E94BE19C1
:10575000CE0107960E947B18CE0101960E947B180D
:10576000BE016F597F4FCE0101960E94D319CE0121
:1057700001960E94681F182FCE0101960E947B1887
:10578000112309F465C263EA75E0CE01815B9F4F86
:105790000E94DB196091E5097091E609CE0101963E
:1057A0000E944F196091020270910302CE01079688
:1057B0000E944F196AEA75E0CE010D960E94DB192E
:1057C000BE01695F7F4FCE010D960E94161961E2FE
:1057D00077E00E940219BE016F5F7F4F0E94161989
:1057E00065E573E00E940219BC01CE01875B9F4F03
:1057F0000E94D319CE010D960E947B18CE01079608
:105800000E947B18CE0101960E947B18BE01615B4D
:105810007F4FCE0101960E94D319609104027091CE
:1058200005029E012F5F3F4F41E050E0CE018D5BAE
:105830009F4F0E949B21CE0101960E947B18BE01C2
:10584000615B7F4FCE0101960E94D31960910402E3
:10585000709105029E012F5F3F4F46E050E0CE0160
:10586000CD960E949B21CE0101960E947B18BE011D
:10587000615B7F4FCE0107960E94D31960910402AD
:10588000709105029E01295F3F4F45E050E0CE0137
:1058900001960E949B21BE01615B7F4FCE01439622
:1058A0000E94D31960910402709105029E012D5E41
:1058B0003F4F44E050E0CE010D960E949B21BE0177
:1058C000615B7F4FCE014F960E94D3196091040215
:1058D000709105029E01215E3F4F43E050E0CE01F2
:1058E00049960E949B21BE01615B7F4FCE01C1960C
:1058F0000E94D31960910402709105029E012F5CF1
:105900003F4F50E040E0CE018B960E949B21BE01AC
:10591000655D7F4FCE0185960E94D31961EF72E0DD
:10592000CE0185960E940219BE01675E7F4F0E94DC
:10593000161961EF72E00E940219BE01635F7F4F8A
:105940000E94161961EF72E00E940219BE016F5F9A
:105950007F4F0E941619BC01CE01C7960E94D31931
:10596000CE0185960E947B18CE018B960E947B18F3
:10597000CE01C1960E947B18CE0149960E947B18E9
:10598000CE014F960E947B18CE010D960E947B1887
:10599000CE0143960E947B18CE0101960E947B188F
:1059A000CE0107960E947B186FED72E0CE01CD9676
:1059B0000E94FA17882309F45CC0BE01615B7F4F27
:1059C000CE0107960E94D3196091040270910502DE
:1059D0009E01295F3F4F45E050E0CE0101960E94B5
:1059E0009B21BE01615B7F4FCE0143960E94D3197C
:1059F00060910402709105029E012D5E3F4F44E0CC
:105A000050E0CE010D960E949B21BE01635C7F4F4A
:105A1000CE0149960E94D31961EF72E0CE014996FA
:105A20000E940219BE01635F7F4F0E94161961EF49
:105A300072E00E940219BE016F5F7F4F0E9416192B
:105A4000BC01CE01C7960E94BE19CE0149960E94A4
:105A50007B18CE010D960E947B18CE0143960E94C2
:105A60007B18CE0101960E947B18CE0107960E94FA
:105A70007B18BE01695C7F4FCE014F960E94D319FF
:105A80006FED72E0CE0149960E94DB19BE01615BA9
:105A90007F4FCE0107960E94D31960910402709146
:105AA00005029E01295F3F4F42E050E0CE01019682
:105AB0000E949B21BE016F5F7F4F8EE790E10E94A5
:105AC0003018CE0101960E947B18CE0107960E94E5
:105AD0007B18BE016D5B7F4F88E790E10E94BE1985
